{
  "contractName": "HealthcareRecords",
  "abi": [
    {
      "inputs": [],
      "stateMutability": "nonpayable",
      "type": "constructor"
    },
    {
      "inputs": [],
      "name": "getOwner",
      "outputs": [
        {
          "internalType": "address",
          "name": "",
          "type": "address"
        }
      ],
      "stateMutability": "view",
      "type": "function",
      "constant": true
    },
    {
      "inputs": [
        {
          "internalType": "address",
          "name": "provider",
          "type": "address"
        }
      ],
      "name": "authorizedProvider",
      "outputs": [],
      "stateMutability": "nonpayable",
      "type": "function"
    },
    {
      "inputs": [
        {
          "internalType": "address",
          "name": "provider",
          "type": "address"
        }
      ],
      "name": "isAuthorizedProvider",
      "outputs": [
        {
          "internalType": "bool",
          "name": "",
          "type": "bool"
        }
      ],
      "stateMutability": "view",
      "type": "function",
      "constant": true
    },
    {
      "inputs": [
        {
          "internalType": "uint256",
          "name": "patientID",
          "type": "uint256"
        },
        {
          "internalType": "string",
          "name": "patientName",
          "type": "string"
        },
        {
          "internalType": "string",
          "name": "diagnosis",
          "type": "string"
        },
        {
          "internalType": "string",
          "name": "treatment",
          "type": "string"
        }
      ],
      "name": "addRecord",
      "outputs": [],
      "stateMutability": "nonpayable",
      "type": "function"
    },
    {
      "inputs": [
        {
          "internalType": "uint256",
          "name": "patientID",
          "type": "uint256"
        }
      ],
      "name": "getPatientRecords",
      "outputs": [
        {
          "components": [
            {
              "internalType": "uint256",
              "name": "recordID",
              "type": "uint256"
            },
            {
              "internalType": "string",
              "name": "patientName",
              "type": "string"
            },
            {
              "internalType": "string",
              "name": "treatment",
              "type": "string"
            },
            {
              "internalType": "string",
              "name": "diagnosis",
              "type": "string"
            },
            {
              "internalType": "uint256",
              "name": "timestamp",
              "type": "uint256"
            }
          ],
          "internalType": "struct HealthcareRecords.Record[]",
          "name": "",
          "type": "tuple[]"
        }
      ],
      "stateMutability": "view",
      "type": "function",
      "constant": true
    }
  ],
  "bytecode": "0x608060405234801561001057600080fd5b50336000806101000a81548173ffffffffffffffffffffffffffffffffffffffff021916908373ffffffffffffffffffffffffffffffffffffffff160217905550610eaf806100606000396000f3fe608060405234801561001057600080fd5b50600436106100575760003560e01c80631a08a3481461005c57806322770d8e14610078578063893d20e8146100a8578063ac233064146100c6578063dce7e843146100e2575b600080fd5b61007660048036038101906100719190610852565b610112565b005b610092600480360381019061008d9190610800565b61029b565b60405161009f9190610b79565b60405180910390f35b6100b06102f1565b6040516100bd9190610b3c565b60405180910390f35b6100e060048036038101906100db9190610800565b61031a565b005b6100fc60048036038101906100f79190610829565b610403565b6040516101099190610b57565b60405180910390f35b600260003373ffffffffffffffffffffffffffffffffffffffff1673ffffffffffffffffffffffffffffffffffffffff16815260200190815260200160002060009054906101000a900460ff1661019e576040517f08c379a000000000000000000000000000000000000000000000000000000000815260040161019590610b94565b60405180910390fd5b60006001806000878152602001908152602001600020805490506101c29190610c9b565b9050600160008681526020019081526020016000206040518060a0016040528083815260200186815260200185815260200184815260200142815250908060018154018082558091505060019003906000526020600020906005020160009091909190915060008201518160000155602082015181600101908051906020019061024d9291906106cb565b50604082015181600201908051906020019061026a9291906106cb565b5060608201518160030190805190602001906102879291906106cb565b506080820151816004015550505050505050565b6000600260008373ffffffffffffffffffffffffffffffffffffffff1673ffffffffffffffffffffffffffffffffffffffff16815260200190815260200160002060009054906101000a900460ff169050919050565b60008060009054906101000a900473ffffffffffffffffffffffffffffffffffffffff16905090565b60008054906101000a900473ffffffffffffffffffffffffffffffffffffffff1673ffffffffffffffffffffffffffffffffffffffff163373ffffffffffffffffffffffffffffffffffffffff16146103a8576040517f08c379a000000000000000000000000000000000000000000000000000000000815260040161039f90610bb4565b60405180910390fd5b6001600260008373ffffffffffffffffffffffffffffffffffffffff1673ffffffffffffffffffffffffffffffffffffffff16815260200190815260200160002060006101000a81548160ff02191690831515021790555050565b6060600260003373ffffffffffffffffffffffffffffffffffffffff1673ffffffffffffffffffffffffffffffffffffffff16815260200190815260200160002060009054906101000a900460ff16610491576040517f08c379a000000000000000000000000000000000000000000000000000000000815260040161048890610b94565b60405180910390fd5b60016000838152602001908152602001600020805480602002602001604051908101604052809291908181526020016000905b828210156106c057838290600052602060002090600502016040518060a00160405290816000820154815260200160018201805461050190610d7b565b80601f016020809104026020016040519081016040528092919081815260200182805461052d90610d7b565b801561057a5780601f1061054f5761010080835404028352916020019161057a565b820191906000526020600020905b81548152906001019060200180831161055d57829003601f168201915b5050505050815260200160028201805461059390610d7b565b80601f01602080910402602001604051908101604052809291908181526020018280546105bf90610d7b565b801561060c5780601f106105e15761010080835404028352916020019161060c565b820191906000526020600020905b8154815290600101906020018083116105ef57829003601f168201915b5050505050815260200160038201805461062590610d7b565b80601f016020809104026020016040519081016040528092919081815260200182805461065190610d7b565b801561069e5780601f106106735761010080835404028352916020019161069e565b820191906000526020600020905b81548152906001019060200180831161068157829003601f168201915b50505050508152602001600482015481525050815260200190600101906104c4565b505050509050919050565b8280546106d790610d7b565b90600052602060002090601f0160209004810192826106f95760008555610740565b82601f1061071257805160ff1916838001178555610740565b82800160010185558215610740579182015b8281111561073f578251825591602001919060010190610724565b5b50905061074d9190610751565b5090565b5b8082111561076a576000816000905550600101610752565b5090565b600061078161077c84610c05565b610bd4565b90508281526020810184848401111561079957600080fd5b6107a4848285610d39565b509392505050565b6000813590506107bb81610e4b565b92915050565b600082601f8301126107d257600080fd5b81356107e284826020860161076e565b91505092915050565b6000813590506107fa81610e62565b92915050565b60006020828403121561081257600080fd5b6000610820848285016107ac565b91505092915050565b60006020828403121561083b57600080fd5b6000610849848285016107eb565b91505092915050565b6000806000806080858703121561086857600080fd5b6000610876878288016107eb565b945050602085013567ffffffffffffffff81111561089357600080fd5b61089f878288016107c1565b935050604085013567ffffffffffffffff8111156108bc57600080fd5b6108c8878288016107c1565b925050606085013567ffffffffffffffff8111156108e557600080fd5b6108f1878288016107c1565b91505092959194509250565b60006109098383610aa9565b905092915050565b61091a81610cf1565b82525050565b600061092b82610c45565b6109358185610c68565b93508360208202850161094785610c35565b8060005b85811015610983578484038952815161096485826108fd565b945061096f83610c5b565b925060208a0199505060018101905061094b565b50829750879550505050505092915050565b61099e81610d03565b82525050565b60006109af82610c50565b6109b98185610c79565b93506109c9818560208601610d48565b6109d281610e3a565b840191505092915050565b60006109ea602f83610c8a565b91507f53656e646572206973206e6f7420612072656769737465726564206865616c7460008301527f68636172652070726f76696465722e00000000000000000000000000000000006020830152604082019050919050565b6000610a50603083610c8a565b91507f4f6e6c792074686520636f6e74726163742773206f776e657220697320616c6c60008301527f6f77656420746f2063616c6c2069742e000000000000000000000000000000006020830152604082019050919050565b600060a083016000830151610ac16000860182610b2d565b5060208301518482036020860152610ad982826109a4565b91505060408301518482036040860152610af382826109a4565b91505060608301518482036060860152610b0d82826109a4565b9150506080830151610b226080860182610b2d565b508091505092915050565b610b3681610d2f565b82525050565b6000602082019050610b516000830184610911565b92915050565b60006020820190508181036000830152610b718184610920565b905092915050565b6000602082019050610b8e6000830184610995565b92915050565b60006020820190508181036000830152610bad816109dd565b9050919050565b60006020820190508181036000830152610bcd81610a43565b9050919050565b6000604051905081810181811067ffffffffffffffff82111715610bfb57610bfa610e0b565b5b8060405250919050565b600067ffffffffffffffff821115610c2057610c1f610e0b565b5b601f19601f8301169050602081019050919050565b6000819050602082019050919050565b600081519050919050565b600081519050919050565b6000602082019050919050565b600082825260208201905092915050565b600082825260208201905092915050565b600082825260208201905092915050565b6000610ca682610d2f565b9150610cb183610d2f565b9250827fffffffffffffffffffffffffffffffffffffffffffffffffffffffffffffffff03821115610ce657610ce5610dad565b5b828201905092915050565b6000610cfc82610d0f565b9050919050565b60008115159050919050565b600073ffffffffffffffffffffffffffffffffffffffff82169050919050565b6000819050919050565b82818337600083830152505050565b60005b83811015610d66578082015181840152602081019050610d4b565b83811115610d75576000848401525b50505050565b60006002820490506001821680610d9357607f821691505b60208210811415610da757610da6610ddc565b5b50919050565b7f4e487b7100000000000000000000000000000000000000000000000000000000600052601160045260246000fd5b7f4e487b7100000000000000000000000000000000000000000000000000000000600052602260045260246000fd5b7f4e487b7100000000000000000000000000000000000000000000000000000000600052604160045260246000fd5b6000601f19601f8301169050919050565b610e5481610cf1565b8114610e5f57600080fd5b50565b610e6b81610d2f565b8114610e7657600080fd5b5056fea26469706673582212209a252473cb3fafaac3339d2c13636ed47e9c2a1b1ecd998e700f576abfefd37164736f6c63430008000033",
  "immutableReferences": {},
  "source": "// SPDX-License-Identifier: MIT\r\npragma solidity ^0.8.0;\r\n\r\n//truffle migrate --reset\r\n//const instance = await HealthCareRecords.deployed()\r\ncontract HealthcareRecords {\r\n    address owner;\r\n    struct Record {\r\n        uint256 recordID;\r\n        string patientName;\r\n        string treatment;\r\n        string diagnosis;\r\n        uint256 timestamp;\r\n    }\r\n\r\n    // Stores patient records\r\n    mapping(uint256 => Record[]) private patientRecords;\r\n\r\n    // To check only defined people access\r\n    mapping(address => bool) private authorizedProviders;\r\n\r\n    // To control who can call the function\r\n    modifier onlyOwner {\r\n        require(msg.sender == owner, \"Only the contract's owner is allowed to call it.\");\r\n        _;\r\n    }\r\n\r\n    modifier onlyAuthorizedProvider {\r\n        require(authorizedProviders[msg.sender], \"Sender is not a registered healthcare provider.\");\r\n        _;\r\n    }\r\n\r\n    // Who deploys contract he will be the owner\r\n    constructor() {\r\n        owner = msg.sender;\r\n    }\r\n\r\n    function getOwner() public view returns (address) {\r\n        return owner;\r\n    }\r\n\r\n    // Only owner can access\r\n    function authorizedProvider(address provider) public onlyOwner {\r\n        authorizedProviders[provider] = true;\r\n    }\r\n\r\n    // Function to check if an address is authorized\r\n    function isAuthorizedProvider(address provider) public view returns (bool) {\r\n        return authorizedProviders[provider];\r\n    }\r\n\r\n    // Only authorized providers can access this function\r\n    function addRecord(uint256 patientID, string memory patientName, string memory diagnosis, string memory treatment) public onlyAuthorizedProvider {\r\n        uint256 recordID = patientRecords[patientID].length + 1;\r\n        patientRecords[patientID].push(Record(recordID, patientName, diagnosis, treatment, block.timestamp));\r\n    }\r\n\r\n    function getPatientRecords(uint256 patientID) public view onlyAuthorizedProvider returns (Record[] memory) {\r\n        return patientRecords[patientID];\r\n    }\r\n}",
  "sourcePath": "D:\\Major_Project\\practice2\\contracts\\HealthCareRecords.sol",
  "compiler": {
    "name": "solc",
    "version": "0.8.0+commit.c7dfd78e.Emscripten.clang"
  },
  "schemaVersion": "3.4.16",
  "updatedAt": "2024-12-16T08:59:36.122Z",
  "networkType": "ethereum",
  "devdoc": {
    "kind": "dev",
    "methods": {},
    "version": 1
  },
  "userdoc": {
    "kind": "user",
    "methods": {},
    "version": 1
  }
}