{
  "contractName": "MedicalRecords",
  "abi": [
    {
      "anonymous": false,
      "inputs": [
        {
          "indexed": true,
          "internalType": "uint256",
          "name": "id",
          "type": "uint256"
        },
        {
          "indexed": true,
          "internalType": "address",
          "name": "user",
          "type": "address"
        },
        {
          "indexed": false,
          "internalType": "string",
          "name": "role",
          "type": "string"
        },
        {
          "indexed": false,
          "internalType": "string",
          "name": "action",
          "type": "string"
        },
        {
          "indexed": false,
          "internalType": "uint256",
          "name": "timestamp",
          "type": "uint256"
        }
      ],
      "name": "ActionLogged",
      "type": "event"
    },
    {
      "anonymous": false,
      "inputs": [
        {
          "indexed": true,
          "internalType": "uint256",
          "name": "id",
          "type": "uint256"
        },
        {
          "indexed": true,
          "internalType": "address",
          "name": "doctor",
          "type": "address"
        },
        {
          "indexed": true,
          "internalType": "address",
          "name": "patient",
          "type": "address"
        },
        {
          "indexed": false,
          "internalType": "string",
          "name": "timings",
          "type": "string"
        },
        {
          "indexed": false,
          "internalType": "uint256",
          "name": "durationDays",
          "type": "uint256"
        },
        {
          "indexed": false,
          "internalType": "string",
          "name": "comments",
          "type": "string"
        }
      ],
      "name": "PrescriptionAdded",
      "type": "event"
    },
    {
      "inputs": [
        {
          "internalType": "uint256",
          "name": "",
          "type": "uint256"
        }
      ],
      "name": "logs",
      "outputs": [
        {
          "internalType": "uint256",
          "name": "id",
          "type": "uint256"
        },
        {
          "internalType": "address",
          "name": "user",
          "type": "address"
        },
        {
          "internalType": "string",
          "name": "role",
          "type": "string"
        },
        {
          "internalType": "string",
          "name": "action",
          "type": "string"
        },
        {
          "internalType": "uint256",
          "name": "timestamp",
          "type": "uint256"
        }
      ],
      "stateMutability": "view",
      "type": "function",
      "constant": true
    },
    {
      "inputs": [],
      "name": "prescriptionCount",
      "outputs": [
        {
          "internalType": "uint256",
          "name": "",
          "type": "uint256"
        }
      ],
      "stateMutability": "view",
      "type": "function",
      "constant": true
    },
    {
      "inputs": [
        {
          "internalType": "uint256",
          "name": "",
          "type": "uint256"
        }
      ],
      "name": "prescriptions",
      "outputs": [
        {
          "internalType": "uint256",
          "name": "id",
          "type": "uint256"
        },
        {
          "internalType": "address",
          "name": "doctor",
          "type": "address"
        },
        {
          "internalType": "address",
          "name": "patient",
          "type": "address"
        },
        {
          "internalType": "string",
          "name": "encryptedData",
          "type": "string"
        },
        {
          "internalType": "string",
          "name": "timings",
          "type": "string"
        },
        {
          "internalType": "uint256",
          "name": "durationDays",
          "type": "uint256"
        },
        {
          "internalType": "string",
          "name": "comments",
          "type": "string"
        },
        {
          "internalType": "uint256",
          "name": "timestamp",
          "type": "uint256"
        }
      ],
      "stateMutability": "view",
      "type": "function",
      "constant": true
    },
    {
      "inputs": [
        {
          "internalType": "address",
          "name": "_patient",
          "type": "address"
        },
        {
          "internalType": "string",
          "name": "_encryptedData",
          "type": "string"
        },
        {
          "internalType": "string",
          "name": "_timings",
          "type": "string"
        },
        {
          "internalType": "uint256",
          "name": "_days",
          "type": "uint256"
        },
        {
          "internalType": "string",
          "name": "_comments",
          "type": "string"
        }
      ],
      "name": "addPrescription",
      "outputs": [],
      "stateMutability": "nonpayable",
      "type": "function"
    },
    {
      "inputs": [
        {
          "internalType": "uint256",
          "name": "_id",
          "type": "uint256"
        }
      ],
      "name": "getPrescription",
      "outputs": [
        {
          "internalType": "uint256",
          "name": "",
          "type": "uint256"
        },
        {
          "internalType": "address",
          "name": "",
          "type": "address"
        },
        {
          "internalType": "address",
          "name": "",
          "type": "address"
        },
        {
          "internalType": "string",
          "name": "",
          "type": "string"
        },
        {
          "internalType": "string",
          "name": "",
          "type": "string"
        },
        {
          "internalType": "uint256",
          "name": "",
          "type": "uint256"
        },
        {
          "internalType": "string",
          "name": "",
          "type": "string"
        },
        {
          "internalType": "uint256",
          "name": "",
          "type": "uint256"
        }
      ],
      "stateMutability": "view",
      "type": "function",
      "constant": true
    },
    {
      "inputs": [
        {
          "internalType": "address",
          "name": "_patient",
          "type": "address"
        }
      ],
      "name": "getAllPrescriptions",
      "outputs": [
        {
          "components": [
            {
              "internalType": "uint256",
              "name": "id",
              "type": "uint256"
            },
            {
              "internalType": "address",
              "name": "doctor",
              "type": "address"
            },
            {
              "internalType": "address",
              "name": "patient",
              "type": "address"
            },
            {
              "internalType": "string",
              "name": "encryptedData",
              "type": "string"
            },
            {
              "internalType": "string",
              "name": "timings",
              "type": "string"
            },
            {
              "internalType": "uint256",
              "name": "durationDays",
              "type": "uint256"
            },
            {
              "internalType": "string",
              "name": "comments",
              "type": "string"
            },
            {
              "internalType": "uint256",
              "name": "timestamp",
              "type": "uint256"
            }
          ],
          "internalType": "struct MedicalRecords.Prescription[]",
          "name": "",
          "type": "tuple[]"
        }
      ],
      "stateMutability": "view",
      "type": "function",
      "constant": true
    },
    {
      "inputs": [
        {
          "internalType": "address",
          "name": "_user",
          "type": "address"
        },
        {
          "internalType": "string",
          "name": "_role",
          "type": "string"
        },
        {
          "internalType": "string",
          "name": "_action",
          "type": "string"
        }
      ],
      "name": "logAction",
      "outputs": [],
      "stateMutability": "nonpayable",
      "type": "function"
    },
    {
      "inputs": [],
      "name": "getAllLogs",
      "outputs": [
        {
          "components": [
            {
              "internalType": "uint256",
              "name": "id",
              "type": "uint256"
            },
            {
              "internalType": "address",
              "name": "user",
              "type": "address"
            },
            {
              "internalType": "string",
              "name": "role",
              "type": "string"
            },
            {
              "internalType": "string",
              "name": "action",
              "type": "string"
            },
            {
              "internalType": "uint256",
              "name": "timestamp",
              "type": "uint256"
            }
          ],
          "internalType": "struct MedicalRecords.LogEntry[]",
          "name": "",
          "type": "tuple[]"
        }
      ],
      "stateMutability": "view",
      "type": "function",
      "constant": true
    }
  ],
  "bytecode": "0x608060405234801561001057600080fd5b50611e44806100206000396000f3fe608060405234801561001057600080fd5b50600436106100885760003560e01c8063c6a10b381161005b578063c6a10b3814610135578063e581329b14610165578063e79899bd14610183578063f0e641b9146101b757610088565b806331dfc91b1461008d5780635bfc6872146100c45780636f16af10146100e0578063b655849814610117575b600080fd5b6100a760048036038101906100a291906115e8565b6101d3565b6040516100bb989796959493929190611a55565b60405180910390f35b6100de60048036038101906100d991906114aa565b6103f3565b005b6100fa60048036038101906100f591906115e8565b610555565b60405161010e989796959493929190611a55565b60405180910390f35b61011f610957565b60405161012c9190611a3a565b60405180910390f35b61014f600480360381019061014a9190611481565b61095d565b60405161015c919061196e565b60405180910390f35b61016d610d6b565b60405161017a919061194c565b60405180910390f35b61019d600480360381019061019891906115e8565b610f58565b6040516101ae959493929190611ae8565b60405180910390f35b6101d160048036038101906101cc9190611529565b6110ce565b005b60006020528060005260406000206000915090508060000154908060010160009054906101000a900473ffffffffffffffffffffffffffffffffffffffff16908060020160009054906101000a900473ffffffffffffffffffffffffffffffffffffffff169080600301805461024890611cc7565b80601f016020809104026020016040519081016040528092919081815260200182805461027490611cc7565b80156102c15780601f10610296576101008083540402835291602001916102c1565b820191906000526020600020905b8154815290600101906020018083116102a457829003601f168201915b5050505050908060040180546102d690611cc7565b80601f016020809104026020016040519081016040528092919081815260200182805461030290611cc7565b801561034f5780601f106103245761010080835404028352916020019161034f565b820191906000526020600020905b81548152906001019060200180831161033257829003601f168201915b50505050509080600501549080600601805461036a90611cc7565b80601f016020809104026020016040519081016040528092919081815260200182805461039690611cc7565b80156103e35780601f106103b8576101008083540402835291602001916103e3565b820191906000526020600020905b8154815290600101906020018083116103c657829003601f168201915b5050505050908060070154905088565b6000600280549050905060026040518060a001604052808381526020018673ffffffffffffffffffffffffffffffffffffffff1681526020018581526020018481526020014281525090806001815401808255809150506001900390600052602060002090600502016000909190919091506000820151816000015560208201518160010160006101000a81548173ffffffffffffffffffffffffffffffffffffffff021916908373ffffffffffffffffffffffffffffffffffffffff16021790555060408201518160020190805190602001906104d29291906112db565b5060608201518160030190805190602001906104ef9291906112db565b506080820151816004015550508373ffffffffffffffffffffffffffffffffffffffff16817f1a68c62ce2cafedeb8c4563ae1f23f81f5850dbbacc97a655992d573925a6dd085854260405161054793929190611990565b60405180910390a350505050565b60008060006060806000606060003373ffffffffffffffffffffffffffffffffffffffff166000808b815260200190815260200160002060020160009054906101000a900473ffffffffffffffffffffffffffffffffffffffff1673ffffffffffffffffffffffffffffffffffffffff16148061063257503373ffffffffffffffffffffffffffffffffffffffff166000808b815260200190815260200160002060010160009054906101000a900473ffffffffffffffffffffffffffffffffffffffff1673ffffffffffffffffffffffffffffffffffffffff16145b610671576040517f08c379a000000000000000000000000000000000000000000000000000000000815260040161066890611a1a565b60405180910390fd5b60008060008b815260200190815260200160002060405180610100016040529081600082015481526020016001820160009054906101000a900473ffffffffffffffffffffffffffffffffffffffff1673ffffffffffffffffffffffffffffffffffffffff1673ffffffffffffffffffffffffffffffffffffffff1681526020016002820160009054906101000a900473ffffffffffffffffffffffffffffffffffffffff1673ffffffffffffffffffffffffffffffffffffffff1673ffffffffffffffffffffffffffffffffffffffff16815260200160038201805461075790611cc7565b80601f016020809104026020016040519081016040528092919081815260200182805461078390611cc7565b80156107d05780601f106107a5576101008083540402835291602001916107d0565b820191906000526020600020905b8154815290600101906020018083116107b357829003601f168201915b505050505081526020016004820180546107e990611cc7565b80601f016020809104026020016040519081016040528092919081815260200182805461081590611cc7565b80156108625780601f1061083757610100808354040283529160200191610862565b820191906000526020600020905b81548152906001019060200180831161084557829003601f168201915b505050505081526020016005820154815260200160068201805461088590611cc7565b80601f01602080910402602001604051908101604052809291908181526020018280546108b190611cc7565b80156108fe5780601f106108d3576101008083540402835291602001916108fe565b820191906000526020600020905b8154815290600101906020018083116108e157829003601f168201915b505050505081526020016007820154815250509050806000015181602001518260400151836060015184608001518560a001518660c001518760e001519850985098509850985098509850985050919395975091939597565b60015481565b6060600060015467ffffffffffffffff8111156109a3577f4e487b7100000000000000000000000000000000000000000000000000000000600052604160045260246000fd5b6040519080825280602002602001820160405280156109dc57816020015b6109c9611361565b8152602001906001900390816109c15790505b509050600080600190505b6001548111610d5d578473ffffffffffffffffffffffffffffffffffffffff1660008083815260200190815260200160002060020160009054906101000a900473ffffffffffffffffffffffffffffffffffffffff1673ffffffffffffffffffffffffffffffffffffffff161415610d4a5760008082815260200190815260200160002060405180610100016040529081600082015481526020016001820160009054906101000a900473ffffffffffffffffffffffffffffffffffffffff1673ffffffffffffffffffffffffffffffffffffffff1673ffffffffffffffffffffffffffffffffffffffff1681526020016002820160009054906101000a900473ffffffffffffffffffffffffffffffffffffffff1673ffffffffffffffffffffffffffffffffffffffff1673ffffffffffffffffffffffffffffffffffffffff168152602001600382018054610b3d90611cc7565b80601f0160208091040260200160405190810160405280929190818152602001828054610b6990611cc7565b8015610bb65780601f10610b8b57610100808354040283529160200191610bb6565b820191906000526020600020905b815481529060010190602001808311610b9957829003601f168201915b50505050508152602001600482018054610bcf90611cc7565b80601f0160208091040260200160405190810160405280929190818152602001828054610bfb90611cc7565b8015610c485780601f10610c1d57610100808354040283529160200191610c48565b820191906000526020600020905b815481529060010190602001808311610c2b57829003601f168201915b5050505050815260200160058201548152602001600682018054610c6b90611cc7565b80601f0160208091040260200160405190810160405280929190818152602001828054610c9790611cc7565b8015610ce45780601f10610cb957610100808354040283529160200191610ce4565b820191906000526020600020905b815481529060010190602001808311610cc757829003601f168201915b50505050508152602001600782015481525050838381518110610d30577f4e487b7100000000000000000000000000000000000000000000000000000000600052603260045260246000fd5b60200260200101819052508180610d4690611cf9565b9250505b8080610d5590611cf9565b9150506109e7565b508082528192505050919050565b60606002805480602002602001604051908101604052809291908181526020016000905b82821015610f4f57838290600052602060002090600502016040518060a0016040529081600082015481526020016001820160009054906101000a900473ffffffffffffffffffffffffffffffffffffffff1673ffffffffffffffffffffffffffffffffffffffff1673ffffffffffffffffffffffffffffffffffffffff168152602001600282018054610e2290611cc7565b80601f0160208091040260200160405190810160405280929190818152602001828054610e4e90611cc7565b8015610e9b5780601f10610e7057610100808354040283529160200191610e9b565b820191906000526020600020905b815481529060010190602001808311610e7e57829003601f168201915b50505050508152602001600382018054610eb490611cc7565b80601f0160208091040260200160405190810160405280929190818152602001828054610ee090611cc7565b8015610f2d5780601f10610f0257610100808354040283529160200191610f2d565b820191906000526020600020905b815481529060010190602001808311610f1057829003601f168201915b5050505050815260200160048201548152505081526020019060010190610d8f565b50505050905090565b60028181548110610f6857600080fd5b90600052602060002090600502016000915090508060000154908060010160009054906101000a900473ffffffffffffffffffffffffffffffffffffffff1690806002018054610fb790611cc7565b80601f0160208091040260200160405190810160405280929190818152602001828054610fe390611cc7565b80156110305780601f1061100557610100808354040283529160200191611030565b820191906000526020600020905b81548152906001019060200180831161101357829003601f168201915b50505050509080600301805461104590611cc7565b80601f016020809104026020016040519081016040528092919081815260200182805461107190611cc7565b80156110be5780601f10611093576101008083540402835291602001916110be565b820191906000526020600020905b8154815290600101906020018083116110a157829003601f168201915b5050505050908060040154905085565b600160008154809291906110e190611cf9565b919050555060405180610100016040528060015481526020013373ffffffffffffffffffffffffffffffffffffffff1681526020018673ffffffffffffffffffffffffffffffffffffffff1681526020018581526020018481526020018381526020018281526020014281525060008060015481526020019081526020016000206000820151816000015560208201518160010160006101000a81548173ffffffffffffffffffffffffffffffffffffffff021916908373ffffffffffffffffffffffffffffffffffffffff16021790555060408201518160020160006101000a81548173ffffffffffffffffffffffffffffffffffffffff021916908373ffffffffffffffffffffffffffffffffffffffff16021790555060608201518160030190805190602001906112169291906112db565b5060808201518160040190805190602001906112339291906112db565b5060a0820151816005015560c082015181600601908051906020019061125a9291906112db565b5060e082015181600701559050508473ffffffffffffffffffffffffffffffffffffffff163373ffffffffffffffffffffffffffffffffffffffff166001547fc9b41512a53538e51a2137dca9316e60eba411addb61b6da02aae548ed183e4c8686866040516112cc939291906119d5565b60405180910390a45050505050565b8280546112e790611cc7565b90600052602060002090601f0160209004810192826113095760008555611350565b82601f1061132257805160ff1916838001178555611350565b82800160010185558215611350579182015b8281111561134f578251825591602001919060010190611334565b5b50905061135d91906113d2565b5090565b60405180610100016040528060008152602001600073ffffffffffffffffffffffffffffffffffffffff168152602001600073ffffffffffffffffffffffffffffffffffffffff16815260200160608152602001606081526020016000815260200160608152602001600081525090565b5b808211156113eb5760008160009055506001016113d3565b5090565b60006114026113fd84611b7a565b611b49565b90508281526020810184848401111561141a57600080fd5b611425848285611c85565b509392505050565b60008135905061143c81611de0565b92915050565b600082601f83011261145357600080fd5b81356114638482602086016113ef565b91505092915050565b60008135905061147b81611df7565b92915050565b60006020828403121561149357600080fd5b60006114a18482850161142d565b91505092915050565b6000806000606084860312156114bf57600080fd5b60006114cd8682870161142d565b935050602084013567ffffffffffffffff8111156114ea57600080fd5b6114f686828701611442565b925050604084013567ffffffffffffffff81111561151357600080fd5b61151f86828701611442565b9150509250925092565b600080600080600060a0868803121561154157600080fd5b600061154f8882890161142d565b955050602086013567ffffffffffffffff81111561156c57600080fd5b61157888828901611442565b945050604086013567ffffffffffffffff81111561159557600080fd5b6115a188828901611442565b93505060606115b28882890161146c565b925050608086013567ffffffffffffffff8111156115cf57600080fd5b6115db88828901611442565b9150509295509295909350565b6000602082840312156115fa57600080fd5b60006116088482850161146c565b91505092915050565b600061161d83836117f3565b905092915050565b60006116318383611870565b905092915050565b61164281611c49565b82525050565b61165181611c49565b82525050565b600061166282611bca565b61166c8185611c05565b93508360208202850161167e85611baa565b8060005b858110156116ba578484038952815161169b8582611611565b94506116a683611beb565b925060208a01995050600181019050611682565b50829750879550505050505092915050565b60006116d782611bd5565b6116e18185611c16565b9350836020820285016116f385611bba565b8060005b8581101561172f57848403895281516117108582611625565b945061171b83611bf8565b925060208a019950506001810190506116f7565b50829750879550505050505092915050565b600061174c82611be0565b6117568185611c27565b9350611766818560208601611c94565b61176f81611dcf565b840191505092915050565b600061178582611be0565b61178f8185611c38565b935061179f818560208601611c94565b6117a881611dcf565b840191505092915050565b60006117c0601383611c38565b91507f556e617574686f72697a656420616363657373000000000000000000000000006000830152602082019050919050565b600060a08301600083015161180b600086018261192e565b50602083015161181e6020860182611639565b50604083015184820360408601526118368282611741565b915050606083015184820360608601526118508282611741565b9150506080830151611865608086018261192e565b508091505092915050565b600061010083016000830151611889600086018261192e565b50602083015161189c6020860182611639565b5060408301516118af6040860182611639565b50606083015184820360608601526118c78282611741565b915050608083015184820360808601526118e18282611741565b91505060a08301516118f660a086018261192e565b5060c083015184820360c086015261190e8282611741565b91505060e083015161192360e086018261192e565b508091505092915050565b61193781611c7b565b82525050565b61194681611c7b565b82525050565b600060208201905081810360008301526119668184611657565b905092915050565b6000602082019050818103600083015261198881846116cc565b905092915050565b600060608201905081810360008301526119aa818661177a565b905081810360208301526119be818561177a565b90506119cd604083018461193d565b949350505050565b600060608201905081810360008301526119ef818661177a565b90506119fe602083018561193d565b8181036040830152611a10818461177a565b9050949350505050565b60006020820190508181036000830152611a33816117b3565b9050919050565b6000602082019050611a4f600083018461193d565b92915050565b600061010082019050611a6b600083018b61193d565b611a78602083018a611648565b611a856040830189611648565b8181036060830152611a97818861177a565b90508181036080830152611aab818761177a565b9050611aba60a083018661193d565b81810360c0830152611acc818561177a565b9050611adb60e083018461193d565b9998505050505050505050565b600060a082019050611afd600083018861193d565b611b0a6020830187611648565b8181036040830152611b1c818661177a565b90508181036060830152611b30818561177a565b9050611b3f608083018461193d565b9695505050505050565b6000604051905081810181811067ffffffffffffffff82111715611b7057611b6f611da0565b5b8060405250919050565b600067ffffffffffffffff821115611b9557611b94611da0565b5b601f19601f8301169050602081019050919050565b6000819050602082019050919050565b6000819050602082019050919050565b600081519050919050565b600081519050919050565b600081519050919050565b6000602082019050919050565b6000602082019050919050565b600082825260208201905092915050565b600082825260208201905092915050565b600082825260208201905092915050565b600082825260208201905092915050565b6000611c5482611c5b565b9050919050565b600073ffffffffffffffffffffffffffffffffffffffff82169050919050565b6000819050919050565b82818337600083830152505050565b60005b83811015611cb2578082015181840152602081019050611c97565b83811115611cc1576000848401525b50505050565b60006002820490506001821680611cdf57607f821691505b60208210811415611cf357611cf2611d71565b5b50919050565b6000611d0482611c7b565b91507fffffffffffffffffffffffffffffffffffffffffffffffffffffffffffffffff821415611d3757611d36611d42565b5b600182019050919050565b7f4e487b7100000000000000000000000000000000000000000000000000000000600052601160045260246000fd5b7f4e487b7100000000000000000000000000000000000000000000000000000000600052602260045260246000fd5b7f4e487b7100000000000000000000000000000000000000000000000000000000600052604160045260246000fd5b6000601f19601f8301169050919050565b611de981611c49565b8114611df457600080fd5b50565b611e0081611c7b565b8114611e0b57600080fd5b5056fea2646970667358221220d71bc70d84a8291df1fbd8e83c23d4343defdd3f936bc2050a8c7edd981ad40a64736f6c63430008000033",
  "immutableReferences": {},
  "source": "// SPDX-License-Identifier: MIT\r\npragma solidity ^0.8.0;\r\n\r\ncontract MedicalRecords {\r\n    struct Prescription {\r\n        uint256 id;\r\n        address doctor;\r\n        address patient;\r\n        string encryptedData;  // Encrypted prescription details\r\n        string timings;\r\n        uint256 durationDays;\r\n        string comments;\r\n        uint256 timestamp;\r\n    }\r\n\r\n    struct LogEntry {\r\n        uint256 id;\r\n        address user;\r\n        string role;\r\n        string action;\r\n        uint256 timestamp;\r\n    }\r\n\r\n    mapping(uint256 => Prescription) public prescriptions;\r\n    uint256 public prescriptionCount;\r\n\r\n    event PrescriptionAdded(uint256 indexed id, address indexed doctor, address indexed patient, string timings, uint256 durationDays, string comments);\r\n\r\n    // Add a new prescription (Only Doctors)\r\n    function addPrescription(address _patient, string memory _encryptedData, string memory _timings, uint256 _days, string memory _comments) public {\r\n        prescriptionCount++;\r\n        prescriptions[prescriptionCount] = Prescription(\r\n            prescriptionCount,\r\n            msg.sender, \r\n            _patient, \r\n            _encryptedData, \r\n            _timings, \r\n            _days, \r\n            _comments, \r\n            block.timestamp\r\n        );\r\n        \r\n        emit PrescriptionAdded(prescriptionCount, msg.sender, _patient, _timings, _days, _comments);\r\n    }\r\n\r\n    // Retrieve a prescription (Only Doctor or Patient)\r\n    function getPrescription(uint256 _id) public view returns (uint256, address, address, string memory, string memory, uint256, string memory, uint256) {\r\n        require(prescriptions[_id].patient == msg.sender || prescriptions[_id].doctor == msg.sender, \"Unauthorized access\");\r\n        \r\n        Prescription memory pres = prescriptions[_id];\r\n        return (pres.id, pres.doctor, pres.patient, pres.encryptedData, pres.timings, pres.durationDays, pres.comments, pres.timestamp);\r\n    }\r\n\r\n    // Retrieve all prescriptions for a patient\r\n    function getAllPrescriptions(address _patient) public view returns (Prescription[] memory) {\r\n        Prescription[] memory result = new Prescription[](prescriptionCount);\r\n        uint count = 0;\r\n        \r\n        for (uint i = 1; i <= prescriptionCount; i++) {\r\n            if (prescriptions[i].patient == _patient) {\r\n                result[count] = prescriptions[i];\r\n                count++;\r\n            }\r\n        }\r\n\r\n        // Resize the array to remove empty slots\r\n        assembly { mstore(result, count) }\r\n        return result;\r\n    }\r\n\r\n    // Prescription[] public prescriptions; // Dynamic array for prescriptions\r\n    LogEntry[] public logs; // Dynamic array for logs\r\n\r\n    // event PrescriptionAdded(uint256 indexed id, address indexed doctor, address indexed patient, string timings, uint256 durationDays, string comments);\r\n    event ActionLogged(uint256 indexed id, address indexed user, string role, string action, uint256 timestamp);\r\n\r\n\r\n    // Retrieve a prescription (Only Doctor or Patient)\r\n    // function getPrescription(uint256 _id) public view returns (\r\n    //     uint256, address, address, string memory, string memory, uint256, string memory, uint256\r\n    // ) {\r\n    //     require(_id < prescriptions.length, \"Invalid prescription ID\");\r\n    //     Prescription memory pres = prescriptions[_id];\r\n    //     require(pres.patient == msg.sender || pres.doctor == msg.sender, \"Unauthorized access\");\r\n        \r\n    //     return (pres.id, pres.doctor, pres.patient, pres.encryptedData, pres.timings, pres.durationDays, pres.comments, pres.timestamp);\r\n    // }\r\n\r\n    // Retrieve all prescriptions for a patient\r\n    // function getAllPrescriptions(address _patient) public view returns (Prescription[] memory) {\r\n    //     uint256 count = 0;\r\n\r\n    //     // Count how many prescriptions belong to the patient\r\n    //     for (uint256 i = 0; i < prescriptions.length; i++) {\r\n    //         if (prescriptions[i].patient == _patient) {\r\n    //             count++;\r\n    //         }\r\n    //     }\r\n\r\n    //     // Create a new array with the correct size\r\n    //     Prescription[] memory result = new Prescription[](count);\r\n    //     uint256 index = 0;\r\n\r\n    //     for (uint256 i = 0; i < prescriptions.length; i++) {\r\n    //         if (prescriptions[i].patient == _patient) {\r\n    //             result[index] = prescriptions[i];\r\n    //             index++;\r\n    //         }\r\n    //     }\r\n\r\n    //     return result;\r\n    // }\r\n\r\n    // Log an action (Admin/Doctor)\r\n    function logAction(address _user, string memory _role, string memory _action) public {\r\n        uint256 logId = logs.length;\r\n        logs.push(LogEntry(\r\n            logId,\r\n            _user,\r\n            _role,\r\n            _action,\r\n            block.timestamp\r\n        ));\r\n        \r\n        emit ActionLogged(logId, _user, _role, _action, block.timestamp);\r\n    }\r\n\r\n    // Retrieve all logs from blockchain\r\n    function getAllLogs() public view returns (LogEntry[] memory) {\r\n        return logs;\r\n    }\r\n}\r\n\r\n",
  "sourcePath": "D:\\Major_Project\\practice2\\contracts\\MedicalRecords.sol",
  "compiler": {
    "name": "solc",
    "version": "0.8.0+commit.c7dfd78e.Emscripten.clang"
  },
  "schemaVersion": "3.4.16",
  "updatedAt": "2025-02-05T09:10:55.503Z",
  "networkType": "ethereum",
  "devdoc": {
    "kind": "dev",
    "methods": {},
    "version": 1
  },
  "userdoc": {
    "kind": "user",
    "methods": {},
    "version": 1
  }
}