{
  "contractName": "MedicalRecords",
  "abi": [
    {
      "anonymous": false,
      "inputs": [
        {
          "indexed": true,
          "internalType": "uint256",
          "name": "id",
          "type": "uint256"
        },
        {
          "indexed": true,
          "internalType": "address",
          "name": "doctor",
          "type": "address"
        },
        {
          "indexed": true,
          "internalType": "address",
          "name": "patient",
          "type": "address"
        }
      ],
      "name": "PrescriptionAdded",
      "type": "event"
    },
    {
      "inputs": [],
      "name": "prescriptionCount",
      "outputs": [
        {
          "internalType": "uint256",
          "name": "",
          "type": "uint256"
        }
      ],
      "stateMutability": "view",
      "type": "function",
      "constant": true
    },
    {
      "inputs": [
        {
          "internalType": "uint256",
          "name": "",
          "type": "uint256"
        }
      ],
      "name": "prescriptions",
      "outputs": [
        {
          "internalType": "uint256",
          "name": "id",
          "type": "uint256"
        },
        {
          "internalType": "address",
          "name": "doctor",
          "type": "address"
        },
        {
          "internalType": "address",
          "name": "patient",
          "type": "address"
        },
        {
          "internalType": "string",
          "name": "encryptedData",
          "type": "string"
        },
        {
          "internalType": "uint256",
          "name": "timestamp",
          "type": "uint256"
        }
      ],
      "stateMutability": "view",
      "type": "function",
      "constant": true
    },
    {
      "inputs": [
        {
          "internalType": "address",
          "name": "_patient",
          "type": "address"
        },
        {
          "internalType": "string",
          "name": "_encryptedData",
          "type": "string"
        }
      ],
      "name": "addPrescription",
      "outputs": [],
      "stateMutability": "nonpayable",
      "type": "function"
    },
    {
      "inputs": [
        {
          "internalType": "uint256",
          "name": "_id",
          "type": "uint256"
        }
      ],
      "name": "getPrescription",
      "outputs": [
        {
          "internalType": "string",
          "name": "",
          "type": "string"
        }
      ],
      "stateMutability": "view",
      "type": "function",
      "constant": true
    },
    {
      "inputs": [
        {
          "internalType": "address",
          "name": "_patient",
          "type": "address"
        }
      ],
      "name": "getAllPrescriptions",
      "outputs": [
        {
          "components": [
            {
              "internalType": "uint256",
              "name": "id",
              "type": "uint256"
            },
            {
              "internalType": "address",
              "name": "doctor",
              "type": "address"
            },
            {
              "internalType": "address",
              "name": "patient",
              "type": "address"
            },
            {
              "internalType": "string",
              "name": "encryptedData",
              "type": "string"
            },
            {
              "internalType": "uint256",
              "name": "timestamp",
              "type": "uint256"
            }
          ],
          "internalType": "struct MedicalRecords.Prescription[]",
          "name": "",
          "type": "tuple[]"
        }
      ],
      "stateMutability": "view",
      "type": "function",
      "constant": true
    }
  ],
  "bytecode": "0x608060405234801561001057600080fd5b50611021806100206000396000f3fe608060405234801561001057600080fd5b50600436106100575760003560e01c806331dfc91b1461005c5780636f16af1014610090578063a3e12bc0146100c0578063b6558498146100dc578063c6a10b38146100fa575b600080fd5b61007660048036038101906100719190610a70565b61012a565b604051610087959493929190610d05565b60405180910390f35b6100aa60048036038101906100a59190610a70565b610228565b6040516100b79190610ca8565b60405180910390f35b6100da60048036038101906100d59190610a1c565b6103dd565b005b6100e4610581565b6040516100f19190610cea565b60405180910390f35b610114600480360381019061010f91906109f3565b610587565b6040516101219190610c86565b60405180910390f35b60006020528060005260406000206000915090508060000154908060010160009054906101000a900473ffffffffffffffffffffffffffffffffffffffff16908060020160009054906101000a900473ffffffffffffffffffffffffffffffffffffffff169080600301805461019f90610ea4565b80601f01602080910402602001604051908101604052809291908181526020018280546101cb90610ea4565b80156102185780601f106101ed57610100808354040283529160200191610218565b820191906000526020600020905b8154815290600101906020018083116101fb57829003601f168201915b5050505050908060040154905085565b60603373ffffffffffffffffffffffffffffffffffffffff1660008084815260200190815260200160002060020160009054906101000a900473ffffffffffffffffffffffffffffffffffffffff1673ffffffffffffffffffffffffffffffffffffffff1614806102f957503373ffffffffffffffffffffffffffffffffffffffff1660008084815260200190815260200160002060010160009054906101000a900473ffffffffffffffffffffffffffffffffffffffff1673ffffffffffffffffffffffffffffffffffffffff16145b610338576040517f08c379a000000000000000000000000000000000000000000000000000000000815260040161032f90610cca565b60405180910390fd5b600080838152602001908152602001600020600301805461035890610ea4565b80601f016020809104026020016040519081016040528092919081815260200182805461038490610ea4565b80156103d15780601f106103a6576101008083540402835291602001916103d1565b820191906000526020600020905b8154815290600101906020018083116103b457829003601f168201915b50505050509050919050565b600160008154809291906103f090610ed6565b91905055506040518060a0016040528060015481526020013373ffffffffffffffffffffffffffffffffffffffff1681526020018373ffffffffffffffffffffffffffffffffffffffff1681526020018281526020014281525060008060015481526020019081526020016000206000820151816000015560208201518160010160006101000a81548173ffffffffffffffffffffffffffffffffffffffff021916908373ffffffffffffffffffffffffffffffffffffffff16021790555060408201518160020160006101000a81548173ffffffffffffffffffffffffffffffffffffffff021916908373ffffffffffffffffffffffffffffffffffffffff1602179055506060820151816003019080519060200190610512929190610863565b50608082015181600401559050508173ffffffffffffffffffffffffffffffffffffffff163373ffffffffffffffffffffffffffffffffffffffff166001547f3ed997fb983fbab0008c9726266cc1f4a1831cceb3540632470289eb9fdb0bd360405160405180910390a45050565b60015481565b6060600060015467ffffffffffffffff8111156105cd577f4e487b7100000000000000000000000000000000000000000000000000000000600052604160045260246000fd5b60405190808252806020026020018201604052801561060657816020015b6105f36108e9565b8152602001906001900390816105eb5790505b509050600080600190505b6001548111610858578473ffffffffffffffffffffffffffffffffffffffff1660008083815260200190815260200160002060020160009054906101000a900473ffffffffffffffffffffffffffffffffffffffff1673ffffffffffffffffffffffffffffffffffffffff161415610845576000808281526020019081526020016000206040518060a0016040529081600082015481526020016001820160009054906101000a900473ffffffffffffffffffffffffffffffffffffffff1673ffffffffffffffffffffffffffffffffffffffff1673ffffffffffffffffffffffffffffffffffffffff1681526020016002820160009054906101000a900473ffffffffffffffffffffffffffffffffffffffff1673ffffffffffffffffffffffffffffffffffffffff1673ffffffffffffffffffffffffffffffffffffffff16815260200160038201805461076690610ea4565b80601f016020809104026020016040519081016040528092919081815260200182805461079290610ea4565b80156107df5780601f106107b4576101008083540402835291602001916107df565b820191906000526020600020905b8154815290600101906020018083116107c257829003601f168201915b5050505050815260200160048201548152505083838151811061082b577f4e487b7100000000000000000000000000000000000000000000000000000000600052603260045260246000fd5b6020026020010181905250818061084190610ed6565b9250505b808061085090610ed6565b915050610611565b508192505050919050565b82805461086f90610ea4565b90600052602060002090601f01602090048101928261089157600085556108d8565b82601f106108aa57805160ff19168380011785556108d8565b828001600101855582156108d8579182015b828111156108d75782518255916020019190600101906108bc565b5b5090506108e59190610944565b5090565b6040518060a0016040528060008152602001600073ffffffffffffffffffffffffffffffffffffffff168152602001600073ffffffffffffffffffffffffffffffffffffffff16815260200160608152602001600081525090565b5b8082111561095d576000816000905550600101610945565b5090565b600061097461096f84610d90565b610d5f565b90508281526020810184848401111561098c57600080fd5b610997848285610e62565b509392505050565b6000813590506109ae81610fbd565b92915050565b600082601f8301126109c557600080fd5b81356109d5848260208601610961565b91505092915050565b6000813590506109ed81610fd4565b92915050565b600060208284031215610a0557600080fd5b6000610a138482850161099f565b91505092915050565b60008060408385031215610a2f57600080fd5b6000610a3d8582860161099f565b925050602083013567ffffffffffffffff811115610a5a57600080fd5b610a66858286016109b4565b9150509250929050565b600060208284031215610a8257600080fd5b6000610a90848285016109de565b91505092915050565b6000610aa58383610bf2565b905092915050565b610ab681610e26565b82525050565b610ac581610e26565b82525050565b6000610ad682610dd0565b610ae08185610df3565b935083602082028501610af285610dc0565b8060005b85811015610b2e5784840389528151610b0f8582610a99565b9450610b1a83610de6565b925060208a01995050600181019050610af6565b50829750879550505050505092915050565b6000610b4b82610ddb565b610b558185610e04565b9350610b65818560208601610e71565b610b6e81610fac565b840191505092915050565b6000610b8482610ddb565b610b8e8185610e15565b9350610b9e818560208601610e71565b610ba781610fac565b840191505092915050565b6000610bbf601383610e15565b91507f556e617574686f72697a656420616363657373000000000000000000000000006000830152602082019050919050565b600060a083016000830151610c0a6000860182610c68565b506020830151610c1d6020860182610aad565b506040830151610c306040860182610aad565b5060608301518482036060860152610c488282610b40565b9150506080830151610c5d6080860182610c68565b508091505092915050565b610c7181610e58565b82525050565b610c8081610e58565b82525050565b60006020820190508181036000830152610ca08184610acb565b905092915050565b60006020820190508181036000830152610cc28184610b79565b905092915050565b60006020820190508181036000830152610ce381610bb2565b9050919050565b6000602082019050610cff6000830184610c77565b92915050565b600060a082019050610d1a6000830188610c77565b610d276020830187610abc565b610d346040830186610abc565b8181036060830152610d468185610b79565b9050610d556080830184610c77565b9695505050505050565b6000604051905081810181811067ffffffffffffffff82111715610d8657610d85610f7d565b5b8060405250919050565b600067ffffffffffffffff821115610dab57610daa610f7d565b5b601f19601f8301169050602081019050919050565b6000819050602082019050919050565b600081519050919050565b600081519050919050565b6000602082019050919050565b600082825260208201905092915050565b600082825260208201905092915050565b600082825260208201905092915050565b6000610e3182610e38565b9050919050565b600073ffffffffffffffffffffffffffffffffffffffff82169050919050565b6000819050919050565b82818337600083830152505050565b60005b83811015610e8f578082015181840152602081019050610e74565b83811115610e9e576000848401525b50505050565b60006002820490506001821680610ebc57607f821691505b60208210811415610ed057610ecf610f4e565b5b50919050565b6000610ee182610e58565b91507fffffffffffffffffffffffffffffffffffffffffffffffffffffffffffffffff821415610f1457610f13610f1f565b5b600182019050919050565b7f4e487b7100000000000000000000000000000000000000000000000000000000600052601160045260246000fd5b7f4e487b7100000000000000000000000000000000000000000000000000000000600052602260045260246000fd5b7f4e487b7100000000000000000000000000000000000000000000000000000000600052604160045260246000fd5b6000601f19601f8301169050919050565b610fc681610e26565b8114610fd157600080fd5b50565b610fdd81610e58565b8114610fe857600080fd5b5056fea2646970667358221220721384f045893f809b71a63324fe1e037bfe351d3b86daa44e952780109374ef64736f6c63430008000033",
  "immutableReferences": {},
  "source": "// SPDX-License-Identifier: MIT\r\npragma solidity ^0.8.0;\r\n\r\ncontract MedicalRecords {\r\n    struct Prescription {\r\n        uint256 id;\r\n        address doctor;\r\n        address patient;\r\n        string encryptedData;  // Encrypted prescription details\r\n        uint256 timestamp;\r\n    }\r\n\r\n    mapping(uint256 => Prescription) public prescriptions;\r\n    uint256 public prescriptionCount;\r\n\r\n    event PrescriptionAdded(uint256 indexed id, address indexed doctor, address indexed patient);\r\n\r\n    // Add a new prescription (Only Doctors)\r\n    function addPrescription(address _patient, string memory _encryptedData) public {\r\n        prescriptionCount++;\r\n        prescriptions[prescriptionCount] = Prescription(prescriptionCount, msg.sender, _patient, _encryptedData, block.timestamp);\r\n        emit PrescriptionAdded(prescriptionCount, msg.sender, _patient);\r\n    }\r\n\r\n    // Retrieve a prescription (Only Doctor or Patient)\r\n    function getPrescription(uint256 _id) public view returns (string memory) {\r\n        require(prescriptions[_id].patient == msg.sender || prescriptions[_id].doctor == msg.sender, \"Unauthorized access\");\r\n        return prescriptions[_id].encryptedData;\r\n    }\r\n\r\n    function getAllPrescriptions(address _patient) public view returns (Prescription[] memory) {\r\n    Prescription[] memory patientPrescriptions = new Prescription[](prescriptionCount);\r\n    uint256 count = 0;\r\n\r\n    for (uint256 i = 1; i <= prescriptionCount; i++) {\r\n        if (prescriptions[i].patient == _patient) {\r\n            patientPrescriptions[count] = prescriptions[i];\r\n            count++;\r\n        }\r\n    }\r\n    return patientPrescriptions;\r\n    }\r\n\r\n}\r\n\r\n// PS D:\\Major_Project\\practice2> truffle migrate --network development\r\n\r\n// Compiling your contracts...\r\n// ===========================\r\n// > Compiling .\\contracts\\MedicalRecords.sol\r\n// > Compiling .\\contracts\\MedicalRecords.sol\r\n// > Artifacts written to D:\\Major_Project\\practice2\\build\\contracts\r\n// > Compiled successfully using:\r\n//    - solc: 0.8.0+commit.c7dfd78e.Emscripten.clang\r\n\r\n\r\n// Starting migrations...\r\n// ======================\r\n// > Network name:    'development'\r\n// > Network id:      5777\r\n// > Block gas limit: 6721975 (0x6691b7)\r\n\r\n\r\n// 2_deploy_contracts.js\r\n// =====================\r\n\r\n//    Deploying 'MedicalRecords'\r\n//    --------------------------\r\n//    > transaction hash:    0xb4198a437fd40001bbbb9cfb91799e5514699352c215d12e564cb1b7c37b557d\r\n//    > Blocks: 0            Seconds: 0\r\n//    > contract address:    0x54989F4B5edE2262FBc015a743881C5fbb288A8c\r\n//    > block number:        1\r\n//    > block timestamp:     1738497135\r\n//    > account:             0xD4C0A1665BbB867EF1B2BEE8Df536fE563b5A425\r\n//    > balance:             99.997817971375\r\n//    > gas used:            646527 (0x9dd7f)\r\n//    > gas price:           3.375 gwei\r\n//    > value sent:          0 ETH\r\n//    > total cost:          0.002182028625 ETH\r\n\r\n//    > Saving artifacts\r\n//    -------------------------------------\r\n//    > Total cost:      0.002182028625 ETH\r\n\r\n// Summary\r\n// =======\r\n// > Total deployments:   1\r\n// > Block gas limit: 6721975 (0x6691b7)\r\n\r\n\r\n// 2_deploy_contracts.js\r\n// =====================\r\n\r\n//    Deploying 'MedicalRecords'\r\n//    --------------------------\r\n//    > transaction hash:    0xb4198a437fd40001bbbb9cfb91799e5514699352c215d12e564cb1b7c37b557d\r\n//    > Blocks: 0            Seconds: 0\r\n//    > contract address:    0x54989F4B5edE2262FBc015a743881C5fbb288A8c\r\n//    > block number:        1\r\n//    > block timestamp:     1738497135\r\n//    > account:             0xD4C0A1665BbB867EF1B2BEE8Df536fE563b5A425\r\n//    > balance:             99.997817971375\r\n//    > gas used:            646527 (0x9dd7f)\r\n//    > gas price:           3.375 gwei\r\n//    > value sent:          0 ETH\r\n//    > total cost:          0.002182028625 ETH\r\n\r\n//    > Saving artifacts\r\n//    -------------------------------------\r\n//    > Total cost:      0.002182028625 ETH\r\n\r\n// Summary\r\n// =======\r\n// > Total deployments:   1\r\n//    > account:             0xD4C0A1665BbB867EF1B2BEE8Df536fE563b5A425\r\n//    > balance:             99.997817971375\r\n//    > gas used:            646527 (0x9dd7f)\r\n//    > gas price:           3.375 gwei\r\n//    > value sent:          0 ETH\r\n//    > total cost:          0.002182028625 ETH\r\n\r\n//    > Saving artifacts\r\n//    -------------------------------------\r\n//    > Total cost:      0.002182028625 ETH\r\n\r\n// Summary\r\n// =======\r\n// > Total deployments:   1\r\n// > Final cost:          0.002182028625 ETH",
  "sourcePath": "D:\\Major_Project\\practice2\\contracts\\MedicalRecords.sol",
  "compiler": {
    "name": "solc",
    "version": "0.8.0+commit.c7dfd78e.Emscripten.clang"
  },
  "schemaVersion": "3.4.16",
  "updatedAt": "2025-02-02T13:25:53.505Z",
  "networkType": "ethereum",
  "devdoc": {
    "kind": "dev",
    "methods": {},
    "version": 1
  },
  "userdoc": {
    "kind": "user",
    "methods": {},
    "version": 1
  }
}