{
  "contractName": "MedicalRecords",
  "abi": [
    {
      "anonymous": false,
      "inputs": [
        {
          "indexed": true,
          "internalType": "uint256",
          "name": "id",
          "type": "uint256"
        },
        {
          "indexed": true,
          "internalType": "address",
          "name": "doctor",
          "type": "address"
        },
        {
          "indexed": true,
          "internalType": "address",
          "name": "patient",
          "type": "address"
        },
        {
          "indexed": false,
          "internalType": "string",
          "name": "timings",
          "type": "string"
        },
        {
          "indexed": false,
          "internalType": "uint256",
          "name": "durationDays",
          "type": "uint256"
        },
        {
          "indexed": false,
          "internalType": "string",
          "name": "comments",
          "type": "string"
        }
      ],
      "name": "PrescriptionAdded",
      "type": "event"
    },
    {
      "inputs": [],
      "name": "prescriptionCount",
      "outputs": [
        {
          "internalType": "uint256",
          "name": "",
          "type": "uint256"
        }
      ],
      "stateMutability": "view",
      "type": "function",
      "constant": true
    },
    {
      "inputs": [
        {
          "internalType": "uint256",
          "name": "",
          "type": "uint256"
        }
      ],
      "name": "prescriptions",
      "outputs": [
        {
          "internalType": "uint256",
          "name": "id",
          "type": "uint256"
        },
        {
          "internalType": "address",
          "name": "doctor",
          "type": "address"
        },
        {
          "internalType": "address",
          "name": "patient",
          "type": "address"
        },
        {
          "internalType": "string",
          "name": "encryptedData",
          "type": "string"
        },
        {
          "internalType": "string",
          "name": "timings",
          "type": "string"
        },
        {
          "internalType": "uint256",
          "name": "durationDays",
          "type": "uint256"
        },
        {
          "internalType": "string",
          "name": "comments",
          "type": "string"
        },
        {
          "internalType": "uint256",
          "name": "timestamp",
          "type": "uint256"
        }
      ],
      "stateMutability": "view",
      "type": "function",
      "constant": true
    },
    {
      "inputs": [
        {
          "internalType": "address",
          "name": "_patient",
          "type": "address"
        },
        {
          "internalType": "string",
          "name": "_encryptedData",
          "type": "string"
        },
        {
          "internalType": "string",
          "name": "_timings",
          "type": "string"
        },
        {
          "internalType": "uint256",
          "name": "_days",
          "type": "uint256"
        },
        {
          "internalType": "string",
          "name": "_comments",
          "type": "string"
        }
      ],
      "name": "addPrescription",
      "outputs": [],
      "stateMutability": "nonpayable",
      "type": "function"
    },
    {
      "inputs": [
        {
          "internalType": "uint256",
          "name": "_id",
          "type": "uint256"
        }
      ],
      "name": "getPrescription",
      "outputs": [
        {
          "internalType": "uint256",
          "name": "",
          "type": "uint256"
        },
        {
          "internalType": "address",
          "name": "",
          "type": "address"
        },
        {
          "internalType": "address",
          "name": "",
          "type": "address"
        },
        {
          "internalType": "string",
          "name": "",
          "type": "string"
        },
        {
          "internalType": "string",
          "name": "",
          "type": "string"
        },
        {
          "internalType": "uint256",
          "name": "",
          "type": "uint256"
        },
        {
          "internalType": "string",
          "name": "",
          "type": "string"
        },
        {
          "internalType": "uint256",
          "name": "",
          "type": "uint256"
        }
      ],
      "stateMutability": "view",
      "type": "function",
      "constant": true
    },
    {
      "inputs": [
        {
          "internalType": "address",
          "name": "_patient",
          "type": "address"
        }
      ],
      "name": "getAllPrescriptions",
      "outputs": [
        {
          "components": [
            {
              "internalType": "uint256",
              "name": "id",
              "type": "uint256"
            },
            {
              "internalType": "address",
              "name": "doctor",
              "type": "address"
            },
            {
              "internalType": "address",
              "name": "patient",
              "type": "address"
            },
            {
              "internalType": "string",
              "name": "encryptedData",
              "type": "string"
            },
            {
              "internalType": "string",
              "name": "timings",
              "type": "string"
            },
            {
              "internalType": "uint256",
              "name": "durationDays",
              "type": "uint256"
            },
            {
              "internalType": "string",
              "name": "comments",
              "type": "string"
            },
            {
              "internalType": "uint256",
              "name": "timestamp",
              "type": "uint256"
            }
          ],
          "internalType": "struct MedicalRecords.Prescription[]",
          "name": "",
          "type": "tuple[]"
        }
      ],
      "stateMutability": "view",
      "type": "function",
      "constant": true
    }
  ],
  "bytecode": "0x608060405234801561001057600080fd5b5061165a806100206000396000f3fe608060405234801561001057600080fd5b50600436106100575760003560e01c806331dfc91b1461005c5780636f16af1014610093578063b6558498146100ca578063c6a10b38146100e8578063f0e641b914610118575b600080fd5b61007660048036038101906100719190611005565b610134565b60405161008a989796959493929190611305565b60405180910390f35b6100ad60048036038101906100a89190611005565b610354565b6040516100c1989796959493929190611305565b60405180910390f35b6100d2610756565b6040516100df91906112ea565b60405180910390f35b61010260048036038101906100fd9190610f1d565b61075c565b60405161010f9190611263565b60405180910390f35b610132600480360381019061012d9190610f46565b610b6a565b005b60006020528060005260406000206000915090508060000154908060010160009054906101000a900473ffffffffffffffffffffffffffffffffffffffff16908060020160009054906101000a900473ffffffffffffffffffffffffffffffffffffffff16908060030180546101a9906114dd565b80601f01602080910402602001604051908101604052809291908181526020018280546101d5906114dd565b80156102225780601f106101f757610100808354040283529160200191610222565b820191906000526020600020905b81548152906001019060200180831161020557829003601f168201915b505050505090806004018054610237906114dd565b80601f0160208091040260200160405190810160405280929190818152602001828054610263906114dd565b80156102b05780601f10610285576101008083540402835291602001916102b0565b820191906000526020600020905b81548152906001019060200180831161029357829003601f168201915b5050505050908060050154908060060180546102cb906114dd565b80601f01602080910402602001604051908101604052809291908181526020018280546102f7906114dd565b80156103445780601f1061031957610100808354040283529160200191610344565b820191906000526020600020905b81548152906001019060200180831161032757829003601f168201915b5050505050908060070154905088565b60008060006060806000606060003373ffffffffffffffffffffffffffffffffffffffff166000808b815260200190815260200160002060020160009054906101000a900473ffffffffffffffffffffffffffffffffffffffff1673ffffffffffffffffffffffffffffffffffffffff16148061043157503373ffffffffffffffffffffffffffffffffffffffff166000808b815260200190815260200160002060010160009054906101000a900473ffffffffffffffffffffffffffffffffffffffff1673ffffffffffffffffffffffffffffffffffffffff16145b610470576040517f08c379a0000000000000000000000000000000000000000000000000000000008152600401610467906112ca565b60405180910390fd5b60008060008b815260200190815260200160002060405180610100016040529081600082015481526020016001820160009054906101000a900473ffffffffffffffffffffffffffffffffffffffff1673ffffffffffffffffffffffffffffffffffffffff1673ffffffffffffffffffffffffffffffffffffffff1681526020016002820160009054906101000a900473ffffffffffffffffffffffffffffffffffffffff1673ffffffffffffffffffffffffffffffffffffffff1673ffffffffffffffffffffffffffffffffffffffff168152602001600382018054610556906114dd565b80601f0160208091040260200160405190810160405280929190818152602001828054610582906114dd565b80156105cf5780601f106105a4576101008083540402835291602001916105cf565b820191906000526020600020905b8154815290600101906020018083116105b257829003601f168201915b505050505081526020016004820180546105e8906114dd565b80601f0160208091040260200160405190810160405280929190818152602001828054610614906114dd565b80156106615780601f1061063657610100808354040283529160200191610661565b820191906000526020600020905b81548152906001019060200180831161064457829003601f168201915b5050505050815260200160058201548152602001600682018054610684906114dd565b80601f01602080910402602001604051908101604052809291908181526020018280546106b0906114dd565b80156106fd5780601f106106d2576101008083540402835291602001916106fd565b820191906000526020600020905b8154815290600101906020018083116106e057829003601f168201915b505050505081526020016007820154815250509050806000015181602001518260400151836060015184608001518560a001518660c001518760e001519850985098509850985098509850985050919395975091939597565b60015481565b6060600060015467ffffffffffffffff8111156107a2577f4e487b7100000000000000000000000000000000000000000000000000000000600052604160045260246000fd5b6040519080825280602002602001820160405280156107db57816020015b6107c8610d77565b8152602001906001900390816107c05790505b509050600080600190505b6001548111610b5c578473ffffffffffffffffffffffffffffffffffffffff1660008083815260200190815260200160002060020160009054906101000a900473ffffffffffffffffffffffffffffffffffffffff1673ffffffffffffffffffffffffffffffffffffffff161415610b495760008082815260200190815260200160002060405180610100016040529081600082015481526020016001820160009054906101000a900473ffffffffffffffffffffffffffffffffffffffff1673ffffffffffffffffffffffffffffffffffffffff1673ffffffffffffffffffffffffffffffffffffffff1681526020016002820160009054906101000a900473ffffffffffffffffffffffffffffffffffffffff1673ffffffffffffffffffffffffffffffffffffffff1673ffffffffffffffffffffffffffffffffffffffff16815260200160038201805461093c906114dd565b80601f0160208091040260200160405190810160405280929190818152602001828054610968906114dd565b80156109b55780601f1061098a576101008083540402835291602001916109b5565b820191906000526020600020905b81548152906001019060200180831161099857829003601f168201915b505050505081526020016004820180546109ce906114dd565b80601f01602080910402602001604051908101604052809291908181526020018280546109fa906114dd565b8015610a475780601f10610a1c57610100808354040283529160200191610a47565b820191906000526020600020905b815481529060010190602001808311610a2a57829003601f168201915b5050505050815260200160058201548152602001600682018054610a6a906114dd565b80601f0160208091040260200160405190810160405280929190818152602001828054610a96906114dd565b8015610ae35780601f10610ab857610100808354040283529160200191610ae3565b820191906000526020600020905b815481529060010190602001808311610ac657829003601f168201915b50505050508152602001600782015481525050838381518110610b2f577f4e487b7100000000000000000000000000000000000000000000000000000000600052603260045260246000fd5b60200260200101819052508180610b459061150f565b9250505b8080610b549061150f565b9150506107e6565b508082528192505050919050565b60016000815480929190610b7d9061150f565b919050555060405180610100016040528060015481526020013373ffffffffffffffffffffffffffffffffffffffff1681526020018673ffffffffffffffffffffffffffffffffffffffff1681526020018581526020018481526020018381526020018281526020014281525060008060015481526020019081526020016000206000820151816000015560208201518160010160006101000a81548173ffffffffffffffffffffffffffffffffffffffff021916908373ffffffffffffffffffffffffffffffffffffffff16021790555060408201518160020160006101000a81548173ffffffffffffffffffffffffffffffffffffffff021916908373ffffffffffffffffffffffffffffffffffffffff1602179055506060820151816003019080519060200190610cb2929190610de8565b506080820151816004019080519060200190610ccf929190610de8565b5060a0820151816005015560c0820151816006019080519060200190610cf6929190610de8565b5060e082015181600701559050508473ffffffffffffffffffffffffffffffffffffffff163373ffffffffffffffffffffffffffffffffffffffff166001547fc9b41512a53538e51a2137dca9316e60eba411addb61b6da02aae548ed183e4c868686604051610d6893929190611285565b60405180910390a45050505050565b60405180610100016040528060008152602001600073ffffffffffffffffffffffffffffffffffffffff168152602001600073ffffffffffffffffffffffffffffffffffffffff16815260200160608152602001606081526020016000815260200160608152602001600081525090565b828054610df4906114dd565b90600052602060002090601f016020900481019282610e165760008555610e5d565b82601f10610e2f57805160ff1916838001178555610e5d565b82800160010185558215610e5d579182015b82811115610e5c578251825591602001919060010190610e41565b5b509050610e6a9190610e6e565b5090565b5b80821115610e87576000816000905550600101610e6f565b5090565b6000610e9e610e99846113c9565b611398565b905082815260208101848484011115610eb657600080fd5b610ec184828561149b565b509392505050565b600081359050610ed8816115f6565b92915050565b600082601f830112610eef57600080fd5b8135610eff848260208601610e8b565b91505092915050565b600081359050610f178161160d565b92915050565b600060208284031215610f2f57600080fd5b6000610f3d84828501610ec9565b91505092915050565b600080600080600060a08688031215610f5e57600080fd5b6000610f6c88828901610ec9565b955050602086013567ffffffffffffffff811115610f8957600080fd5b610f9588828901610ede565b945050604086013567ffffffffffffffff811115610fb257600080fd5b610fbe88828901610ede565b9350506060610fcf88828901610f08565b925050608086013567ffffffffffffffff811115610fec57600080fd5b610ff888828901610ede565b9150509295509295909350565b60006020828403121561101757600080fd5b600061102584828501610f08565b91505092915050565b600061103a8383611187565b905092915050565b61104b8161145f565b82525050565b61105a8161145f565b82525050565b600061106b82611409565b611075818561142c565b935083602082028501611087856113f9565b8060005b858110156110c357848403895281516110a4858261102e565b94506110af8361141f565b925060208a0199505060018101905061108b565b50829750879550505050505092915050565b60006110e082611414565b6110ea818561143d565b93506110fa8185602086016114aa565b611103816115e5565b840191505092915050565b600061111982611414565b611123818561144e565b93506111338185602086016114aa565b61113c816115e5565b840191505092915050565b600061115460138361144e565b91507f556e617574686f72697a656420616363657373000000000000000000000000006000830152602082019050919050565b6000610100830160008301516111a06000860182611245565b5060208301516111b36020860182611042565b5060408301516111c66040860182611042565b50606083015184820360608601526111de82826110d5565b915050608083015184820360808601526111f882826110d5565b91505060a083015161120d60a0860182611245565b5060c083015184820360c086015261122582826110d5565b91505060e083015161123a60e0860182611245565b508091505092915050565b61124e81611491565b82525050565b61125d81611491565b82525050565b6000602082019050818103600083015261127d8184611060565b905092915050565b6000606082019050818103600083015261129f818661110e565b90506112ae6020830185611254565b81810360408301526112c0818461110e565b9050949350505050565b600060208201905081810360008301526112e381611147565b9050919050565b60006020820190506112ff6000830184611254565b92915050565b60006101008201905061131b600083018b611254565b611328602083018a611051565b6113356040830189611051565b8181036060830152611347818861110e565b9050818103608083015261135b818761110e565b905061136a60a0830186611254565b81810360c083015261137c818561110e565b905061138b60e0830184611254565b9998505050505050505050565b6000604051905081810181811067ffffffffffffffff821117156113bf576113be6115b6565b5b8060405250919050565b600067ffffffffffffffff8211156113e4576113e36115b6565b5b601f19601f8301169050602081019050919050565b6000819050602082019050919050565b600081519050919050565b600081519050919050565b6000602082019050919050565b600082825260208201905092915050565b600082825260208201905092915050565b600082825260208201905092915050565b600061146a82611471565b9050919050565b600073ffffffffffffffffffffffffffffffffffffffff82169050919050565b6000819050919050565b82818337600083830152505050565b60005b838110156114c85780820151818401526020810190506114ad565b838111156114d7576000848401525b50505050565b600060028204905060018216806114f557607f821691505b6020821081141561150957611508611587565b5b50919050565b600061151a82611491565b91507fffffffffffffffffffffffffffffffffffffffffffffffffffffffffffffffff82141561154d5761154c611558565b5b600182019050919050565b7f4e487b7100000000000000000000000000000000000000000000000000000000600052601160045260246000fd5b7f4e487b7100000000000000000000000000000000000000000000000000000000600052602260045260246000fd5b7f4e487b7100000000000000000000000000000000000000000000000000000000600052604160045260246000fd5b6000601f19601f8301169050919050565b6115ff8161145f565b811461160a57600080fd5b50565b61161681611491565b811461162157600080fd5b5056fea26469706673582212206d40ff538f6357cc433e15081b5f07f3a35bf7c70cf1d02cd3208f1d4b14521064736f6c63430008000033",
  "immutableReferences": {},
  "source": "// SPDX-License-Identifier: MIT\r\npragma solidity ^0.8.0;\r\n\r\ncontract MedicalRecords {\r\n    struct Prescription {\r\n        uint256 id;\r\n        address doctor;\r\n        address patient;\r\n        string encryptedData;  // Encrypted prescription details\r\n        string timings;\r\n        uint256 durationDays;\r\n        string comments;\r\n        uint256 timestamp;\r\n    }\r\n\r\n    mapping(uint256 => Prescription) public prescriptions;\r\n    uint256 public prescriptionCount;\r\n\r\n    event PrescriptionAdded(uint256 indexed id, address indexed doctor, address indexed patient, string timings, uint256 durationDays, string comments);\r\n\r\n    // Add a new prescription (Only Doctors)\r\n    function addPrescription(address _patient, string memory _encryptedData, string memory _timings, uint256 _days, string memory _comments) public {\r\n        prescriptionCount++;\r\n        prescriptions[prescriptionCount] = Prescription(\r\n            prescriptionCount,\r\n            msg.sender, \r\n            _patient, \r\n            _encryptedData, \r\n            _timings, \r\n            _days, \r\n            _comments, \r\n            block.timestamp\r\n        );\r\n        \r\n        emit PrescriptionAdded(prescriptionCount, msg.sender, _patient, _timings, _days, _comments);\r\n    }\r\n\r\n    // Retrieve a prescription (Only Doctor or Patient)\r\n    function getPrescription(uint256 _id) public view returns (uint256, address, address, string memory, string memory, uint256, string memory, uint256) {\r\n        require(prescriptions[_id].patient == msg.sender || prescriptions[_id].doctor == msg.sender, \"Unauthorized access\");\r\n        \r\n        Prescription memory pres = prescriptions[_id];\r\n        return (pres.id, pres.doctor, pres.patient, pres.encryptedData, pres.timings, pres.durationDays, pres.comments, pres.timestamp);\r\n    }\r\n\r\n    // Retrieve all prescriptions for a patient\r\n    function getAllPrescriptions(address _patient) public view returns (Prescription[] memory) {\r\n        Prescription[] memory result = new Prescription[](prescriptionCount);\r\n        uint count = 0;\r\n        \r\n        for (uint i = 1; i <= prescriptionCount; i++) {\r\n            if (prescriptions[i].patient == _patient) {\r\n                result[count] = prescriptions[i];\r\n                count++;\r\n            }\r\n        }\r\n\r\n        // Resize the array to remove empty slots\r\n        assembly { mstore(result, count) }\r\n        return result;\r\n    }\r\n\r\n}\r\n\r\n// PS D:\\Major_Project\\practice2> truffle migrate --network development\r\n   \r\n// Compiling your contracts...\r\n// ===========================\r\n// > Compiling .\\contracts\\MedicalRecords.sol\r\n// > Artifacts written to D:\\Major_Project\\practice2\\build\\contracts\r\n// > Compiled successfully using:\r\n//    - solc: 0.8.0+commit.c7dfd78e.Emscripten.clang\r\n\r\n\r\n// Starting migrations...\r\n// ======================\r\n// > Network name:    'development'\r\n// > Network id:      5777\r\n// > Block gas limit: 6721975 (0x6691b7)\r\n\r\n\r\n// 2_deploy_contracts.js\r\n// > Block gas limit: 6721975 (0x6691b7)\r\n\r\n\r\n// 2_deploy_contracts.js\r\n\r\n// 2_deploy_contracts.js\r\n// 2_deploy_contracts.js\r\n// =====================\r\n\r\n//    Replacing 'MedicalRecords'\r\n//    --------------------------\r\n//    > transaction hash:    0x894e8ca38019011d360ebb320875eb5c2cfddd4057a36b9cea478a9cddd8e1df\r\n//    > Blocks: 0            Seconds: 0\r\n//    > contract address:    0x3E3C97c3dFA3aCEC357D07c461F9BbB274C4ef6E\r\n//    > block number:        3\r\n//    > block timestamp:     1738502753\r\n//    > account:             0xD4C0A1665BbB867EF1B2BEE8Df536fE563b5A425\r\n//    > balance:             99.994605394477692184\r\n//    > gas used:            942208 (0xe6080)\r\n//    > gas price:           3.194293577 gwei\r\n//    > value sent:          0 ETH\r\n//    > total cost:          0.003009688962598016 ETH\r\n\r\n//    > Saving artifacts\r\n//    -------------------------------------\r\n//    > Total cost:     0.003009688962598016 ETH\r\n\r\n// Summary\r\n// =======\r\n//    Replacing 'MedicalRecords'\r\n//    --------------------------\r\n//    > transaction hash:    0x894e8ca38019011d360ebb320875eb5c2cfddd4057a36b9cea478a9cddd8e1df\r\n//    > Blocks: 0            Seconds: 0\r\n//    > contract address:    0x3E3C97c3dFA3aCEC357D07c461F9BbB274C4ef6E\r\n//    > block number:        3\r\n//    > block timestamp:     1738502753\r\n//    > account:             0xD4C0A1665BbB867EF1B2BEE8Df536fE563b5A425\r\n//    > balance:             99.994605394477692184\r\n//    > gas used:            942208 (0xe6080)\r\n//    > gas price:           3.194293577 gwei\r\n//    > value sent:          0 ETH\r\n//    > total cost:          0.003009688962598016 ETH\r\n\r\n//    > Saving artifacts\r\n//    -------------------------------------\r\n//    > Total cost:     0.003009688962598016 ETH\r\n\r\n// Summary\r\n// =======\r\n//    > gas used:            942208 (0xe6080)\r\n//    > gas price:           3.194293577 gwei\r\n//    > value sent:          0 ETH\r\n//    > total cost:          0.003009688962598016 ETH\r\n\r\n//    > Saving artifacts\r\n//    -------------------------------------\r\n//    > Total cost:     0.003009688962598016 ETH\r\n\r\n// Summary\r\n// =======\r\n//    > Total cost:     0.003009688962598016 ETH\r\n\r\n// Summary\r\n// =======\r\n// Summary\r\n// =======\r\n// =======\r\n// > Total deployments:   1\r\n// > Final cost:          0.003009688962598016 ETH",
  "sourcePath": "D:\\Major_Project\\practice2\\contracts\\MedicalRecords.sol",
  "compiler": {
    "name": "solc",
    "version": "0.8.0+commit.c7dfd78e.Emscripten.clang"
  },
  "schemaVersion": "3.4.16",
  "updatedAt": "2025-02-02T14:12:58.997Z",
  "networkType": "ethereum",
  "devdoc": {
    "kind": "dev",
    "methods": {},
    "version": 1
  },
  "userdoc": {
    "kind": "user",
    "methods": {},
    "version": 1
  }
}