{
  "contractName": "MedicalRecords",
  "abi": [
    {
      "anonymous": false,
      "inputs": [
        {
          "indexed": true,
          "internalType": "uint256",
          "name": "id",
          "type": "uint256"
        },
        {
          "indexed": true,
          "internalType": "address",
          "name": "user",
          "type": "address"
        },
        {
          "indexed": false,
          "internalType": "string",
          "name": "role",
          "type": "string"
        },
        {
          "indexed": false,
          "internalType": "string",
          "name": "action",
          "type": "string"
        },
        {
          "indexed": false,
          "internalType": "uint256",
          "name": "timestamp",
          "type": "uint256"
        }
      ],
      "name": "ActionLogged",
      "type": "event"
    },
    {
      "anonymous": false,
      "inputs": [
        {
          "indexed": true,
          "internalType": "uint256",
          "name": "id",
          "type": "uint256"
        },
        {
          "indexed": true,
          "internalType": "address",
          "name": "doctor",
          "type": "address"
        },
        {
          "indexed": true,
          "internalType": "address",
          "name": "patient",
          "type": "address"
        },
        {
          "indexed": false,
          "internalType": "string",
          "name": "timings",
          "type": "string"
        },
        {
          "indexed": false,
          "internalType": "uint256",
          "name": "durationDays",
          "type": "uint256"
        },
        {
          "indexed": false,
          "internalType": "string",
          "name": "comments",
          "type": "string"
        }
      ],
      "name": "PrescriptionAdded",
      "type": "event"
    },
    {
      "inputs": [
        {
          "internalType": "uint256",
          "name": "",
          "type": "uint256"
        }
      ],
      "name": "logs",
      "outputs": [
        {
          "internalType": "uint256",
          "name": "id",
          "type": "uint256"
        },
        {
          "internalType": "address",
          "name": "user",
          "type": "address"
        },
        {
          "internalType": "string",
          "name": "role",
          "type": "string"
        },
        {
          "internalType": "string",
          "name": "action",
          "type": "string"
        },
        {
          "internalType": "uint256",
          "name": "timestamp",
          "type": "uint256"
        }
      ],
      "stateMutability": "view",
      "type": "function",
      "constant": true
    },
    {
      "inputs": [
        {
          "internalType": "uint256",
          "name": "",
          "type": "uint256"
        }
      ],
      "name": "prescriptions",
      "outputs": [
        {
          "internalType": "uint256",
          "name": "id",
          "type": "uint256"
        },
        {
          "internalType": "address",
          "name": "doctor",
          "type": "address"
        },
        {
          "internalType": "address",
          "name": "patient",
          "type": "address"
        },
        {
          "internalType": "string",
          "name": "encryptedData",
          "type": "string"
        },
        {
          "internalType": "string",
          "name": "timings",
          "type": "string"
        },
        {
          "internalType": "uint256",
          "name": "durationDays",
          "type": "uint256"
        },
        {
          "internalType": "string",
          "name": "comments",
          "type": "string"
        },
        {
          "internalType": "uint256",
          "name": "timestamp",
          "type": "uint256"
        }
      ],
      "stateMutability": "view",
      "type": "function",
      "constant": true
    },
    {
      "inputs": [
        {
          "internalType": "address",
          "name": "_patient",
          "type": "address"
        },
        {
          "internalType": "string",
          "name": "_encryptedData",
          "type": "string"
        },
        {
          "internalType": "string",
          "name": "_timings",
          "type": "string"
        },
        {
          "internalType": "uint256",
          "name": "_days",
          "type": "uint256"
        },
        {
          "internalType": "string",
          "name": "_comments",
          "type": "string"
        }
      ],
      "name": "addPrescription",
      "outputs": [],
      "stateMutability": "nonpayable",
      "type": "function"
    },
    {
      "inputs": [
        {
          "internalType": "uint256",
          "name": "_id",
          "type": "uint256"
        }
      ],
      "name": "getPrescription",
      "outputs": [
        {
          "internalType": "uint256",
          "name": "",
          "type": "uint256"
        },
        {
          "internalType": "address",
          "name": "",
          "type": "address"
        },
        {
          "internalType": "address",
          "name": "",
          "type": "address"
        },
        {
          "internalType": "string",
          "name": "",
          "type": "string"
        },
        {
          "internalType": "string",
          "name": "",
          "type": "string"
        },
        {
          "internalType": "uint256",
          "name": "",
          "type": "uint256"
        },
        {
          "internalType": "string",
          "name": "",
          "type": "string"
        },
        {
          "internalType": "uint256",
          "name": "",
          "type": "uint256"
        }
      ],
      "stateMutability": "view",
      "type": "function",
      "constant": true
    },
    {
      "inputs": [
        {
          "internalType": "address",
          "name": "_patient",
          "type": "address"
        }
      ],
      "name": "getAllPrescriptions",
      "outputs": [
        {
          "components": [
            {
              "internalType": "uint256",
              "name": "id",
              "type": "uint256"
            },
            {
              "internalType": "address",
              "name": "doctor",
              "type": "address"
            },
            {
              "internalType": "address",
              "name": "patient",
              "type": "address"
            },
            {
              "internalType": "string",
              "name": "encryptedData",
              "type": "string"
            },
            {
              "internalType": "string",
              "name": "timings",
              "type": "string"
            },
            {
              "internalType": "uint256",
              "name": "durationDays",
              "type": "uint256"
            },
            {
              "internalType": "string",
              "name": "comments",
              "type": "string"
            },
            {
              "internalType": "uint256",
              "name": "timestamp",
              "type": "uint256"
            }
          ],
          "internalType": "struct MedicalRecords.Prescription[]",
          "name": "",
          "type": "tuple[]"
        }
      ],
      "stateMutability": "view",
      "type": "function",
      "constant": true
    },
    {
      "inputs": [
        {
          "internalType": "address",
          "name": "_user",
          "type": "address"
        },
        {
          "internalType": "string",
          "name": "_role",
          "type": "string"
        },
        {
          "internalType": "string",
          "name": "_action",
          "type": "string"
        }
      ],
      "name": "logAction",
      "outputs": [],
      "stateMutability": "nonpayable",
      "type": "function"
    },
    {
      "inputs": [],
      "name": "getAllLogs",
      "outputs": [
        {
          "components": [
            {
              "internalType": "uint256",
              "name": "id",
              "type": "uint256"
            },
            {
              "internalType": "address",
              "name": "user",
              "type": "address"
            },
            {
              "internalType": "string",
              "name": "role",
              "type": "string"
            },
            {
              "internalType": "string",
              "name": "action",
              "type": "string"
            },
            {
              "internalType": "uint256",
              "name": "timestamp",
              "type": "uint256"
            }
          ],
          "internalType": "struct MedicalRecords.LogEntry[]",
          "name": "",
          "type": "tuple[]"
        }
      ],
      "stateMutability": "view",
      "type": "function",
      "constant": true
    }
  ],
  "bytecode": "0x608060405234801561001057600080fd5b50611fc2806100206000396000f3fe608060405234801561001057600080fd5b506004361061007d5760003560e01c8063c6a10b381161005b578063c6a10b381461010c578063e581329b1461013c578063e79899bd1461015a578063f0e641b91461018e5761007d565b806331dfc91b146100825780635bfc6872146100b95780636f16af10146100d5575b600080fd5b61009c60048036038101906100979190611721565b6101aa565b6040516100b0989796959493929190611bd3565b60405180910390f35b6100d360048036038101906100ce91906115e3565b6103da565b005b6100ef60048036038101906100ea9190611721565b61053c565b604051610103989796959493929190611bd3565b60405180910390f35b610126600480360381019061012191906115ba565b610957565b6040516101339190611ae7565b60405180910390f35b610144610ea0565b6040516101519190611ac5565b60405180910390f35b610174600480360381019061016f9190611721565b61108d565b604051610185959493929190611c66565b60405180910390f35b6101a860048036038101906101a39190611662565b611203565b005b600081815481106101ba57600080fd5b90600052602060002090600802016000915090508060000154908060010160009054906101000a900473ffffffffffffffffffffffffffffffffffffffff16908060020160009054906101000a900473ffffffffffffffffffffffffffffffffffffffff169080600301805461022f90611e45565b80601f016020809104026020016040519081016040528092919081815260200182805461025b90611e45565b80156102a85780601f1061027d576101008083540402835291602001916102a8565b820191906000526020600020905b81548152906001019060200180831161028b57829003601f168201915b5050505050908060040180546102bd90611e45565b80601f01602080910402602001604051908101604052809291908181526020018280546102e990611e45565b80156103365780601f1061030b57610100808354040283529160200191610336565b820191906000526020600020905b81548152906001019060200180831161031957829003601f168201915b50505050509080600501549080600601805461035190611e45565b80601f016020809104026020016040519081016040528092919081815260200182805461037d90611e45565b80156103ca5780601f1061039f576101008083540402835291602001916103ca565b820191906000526020600020905b8154815290600101906020018083116103ad57829003601f168201915b5050505050908060070154905088565b6000600180549050905060016040518060a001604052808381526020018673ffffffffffffffffffffffffffffffffffffffff1681526020018581526020018481526020014281525090806001815401808255809150506001900390600052602060002090600502016000909190919091506000820151816000015560208201518160010160006101000a81548173ffffffffffffffffffffffffffffffffffffffff021916908373ffffffffffffffffffffffffffffffffffffffff16021790555060408201518160020190805190602001906104b9929190611414565b5060608201518160030190805190602001906104d6929190611414565b506080820151816004015550508373ffffffffffffffffffffffffffffffffffffffff16817f1a68c62ce2cafedeb8c4563ae1f23f81f5850dbbacc97a655992d573925a6dd085854260405161052e93929190611b09565b60405180910390a350505050565b600080600060608060006060600080805490508910610590576040517f08c379a000000000000000000000000000000000000000000000000000000000815260040161058790611b93565b60405180910390fd5b6000808a815481106105cb577f4e487b7100000000000000000000000000000000000000000000000000000000600052603260045260246000fd5b906000526020600020906008020160405180610100016040529081600082015481526020016001820160009054906101000a900473ffffffffffffffffffffffffffffffffffffffff1673ffffffffffffffffffffffffffffffffffffffff1673ffffffffffffffffffffffffffffffffffffffff1681526020016002820160009054906101000a900473ffffffffffffffffffffffffffffffffffffffff1673ffffffffffffffffffffffffffffffffffffffff1673ffffffffffffffffffffffffffffffffffffffff1681526020016003820180546106ab90611e45565b80601f01602080910402602001604051908101604052809291908181526020018280546106d790611e45565b80156107245780601f106106f957610100808354040283529160200191610724565b820191906000526020600020905b81548152906001019060200180831161070757829003601f168201915b5050505050815260200160048201805461073d90611e45565b80601f016020809104026020016040519081016040528092919081815260200182805461076990611e45565b80156107b65780601f1061078b576101008083540402835291602001916107b6565b820191906000526020600020905b81548152906001019060200180831161079957829003601f168201915b50505050508152602001600582015481526020016006820180546107d990611e45565b80601f016020809104026020016040519081016040528092919081815260200182805461080590611e45565b80156108525780601f1061082757610100808354040283529160200191610852565b820191906000526020600020905b81548152906001019060200180831161083557829003601f168201915b5050505050815260200160078201548152505090503373ffffffffffffffffffffffffffffffffffffffff16816040015173ffffffffffffffffffffffffffffffffffffffff1614806108d457503373ffffffffffffffffffffffffffffffffffffffff16816020015173ffffffffffffffffffffffffffffffffffffffff16145b610913576040517f08c379a000000000000000000000000000000000000000000000000000000000815260040161090a90611bb3565b60405180910390fd5b806000015181602001518260400151836060015184608001518560a001518660c001518760e001519850985098509850985098509850985050919395975091939597565b60606000805b600080549050811015610a2b578373ffffffffffffffffffffffffffffffffffffffff16600082815481106109bb577f4e487b7100000000000000000000000000000000000000000000000000000000600052603260045260246000fd5b906000526020600020906008020160020160009054906101000a900473ffffffffffffffffffffffffffffffffffffffff1673ffffffffffffffffffffffffffffffffffffffff161415610a18578180610a1490611e77565b9250505b8080610a2390611e77565b91505061095d565b5060008167ffffffffffffffff811115610a6e577f4e487b7100000000000000000000000000000000000000000000000000000000600052604160045260246000fd5b604051908082528060200260200182016040528015610aa757816020015b610a9461149a565b815260200190600190039081610a8c5790505b5090506000805b600080549050811015610e94578573ffffffffffffffffffffffffffffffffffffffff1660008281548110610b0c577f4e487b7100000000000000000000000000000000000000000000000000000000600052603260045260246000fd5b906000526020600020906008020160020160009054906101000a900473ffffffffffffffffffffffffffffffffffffffff1673ffffffffffffffffffffffffffffffffffffffff161415610e815760008181548110610b94577f4e487b7100000000000000000000000000000000000000000000000000000000600052603260045260246000fd5b906000526020600020906008020160405180610100016040529081600082015481526020016001820160009054906101000a900473ffffffffffffffffffffffffffffffffffffffff1673ffffffffffffffffffffffffffffffffffffffff1673ffffffffffffffffffffffffffffffffffffffff1681526020016002820160009054906101000a900473ffffffffffffffffffffffffffffffffffffffff1673ffffffffffffffffffffffffffffffffffffffff1673ffffffffffffffffffffffffffffffffffffffff168152602001600382018054610c7490611e45565b80601f0160208091040260200160405190810160405280929190818152602001828054610ca090611e45565b8015610ced5780601f10610cc257610100808354040283529160200191610ced565b820191906000526020600020905b815481529060010190602001808311610cd057829003601f168201915b50505050508152602001600482018054610d0690611e45565b80601f0160208091040260200160405190810160405280929190818152602001828054610d3290611e45565b8015610d7f5780601f10610d5457610100808354040283529160200191610d7f565b820191906000526020600020905b815481529060010190602001808311610d6257829003601f168201915b5050505050815260200160058201548152602001600682018054610da290611e45565b80601f0160208091040260200160405190810160405280929190818152602001828054610dce90611e45565b8015610e1b5780601f10610df057610100808354040283529160200191610e1b565b820191906000526020600020905b815481529060010190602001808311610dfe57829003601f168201915b50505050508152602001600782015481525050838381518110610e67577f4e487b7100000000000000000000000000000000000000000000000000000000600052603260045260246000fd5b60200260200101819052508180610e7d90611e77565b9250505b8080610e8c90611e77565b915050610aae565b50819350505050919050565b60606001805480602002602001604051908101604052809291908181526020016000905b8282101561108457838290600052602060002090600502016040518060a0016040529081600082015481526020016001820160009054906101000a900473ffffffffffffffffffffffffffffffffffffffff1673ffffffffffffffffffffffffffffffffffffffff1673ffffffffffffffffffffffffffffffffffffffff168152602001600282018054610f5790611e45565b80601f0160208091040260200160405190810160405280929190818152602001828054610f8390611e45565b8015610fd05780601f10610fa557610100808354040283529160200191610fd0565b820191906000526020600020905b815481529060010190602001808311610fb357829003601f168201915b50505050508152602001600382018054610fe990611e45565b80601f016020809104026020016040519081016040528092919081815260200182805461101590611e45565b80156110625780601f1061103757610100808354040283529160200191611062565b820191906000526020600020905b81548152906001019060200180831161104557829003601f168201915b5050505050815260200160048201548152505081526020019060010190610ec4565b50505050905090565b6001818154811061109d57600080fd5b90600052602060002090600502016000915090508060000154908060010160009054906101000a900473ffffffffffffffffffffffffffffffffffffffff16908060020180546110ec90611e45565b80601f016020809104026020016040519081016040528092919081815260200182805461111890611e45565b80156111655780601f1061113a57610100808354040283529160200191611165565b820191906000526020600020905b81548152906001019060200180831161114857829003601f168201915b50505050509080600301805461117a90611e45565b80601f01602080910402602001604051908101604052809291908181526020018280546111a690611e45565b80156111f35780601f106111c8576101008083540402835291602001916111f3565b820191906000526020600020905b8154815290600101906020018083116111d657829003601f168201915b5050505050908060040154905085565b60008080549050905060006040518061010001604052808381526020013373ffffffffffffffffffffffffffffffffffffffff1681526020018873ffffffffffffffffffffffffffffffffffffffff1681526020018781526020018681526020018581526020018481526020014281525090806001815401808255809150506001900390600052602060002090600802016000909190919091506000820151816000015560208201518160010160006101000a81548173ffffffffffffffffffffffffffffffffffffffff021916908373ffffffffffffffffffffffffffffffffffffffff16021790555060408201518160020160006101000a81548173ffffffffffffffffffffffffffffffffffffffff021916908373ffffffffffffffffffffffffffffffffffffffff1602179055506060820151816003019080519060200190611351929190611414565b50608082015181600401908051906020019061136e929190611414565b5060a0820151816005015560c0820151816006019080519060200190611395929190611414565b5060e0820151816007015550508573ffffffffffffffffffffffffffffffffffffffff163373ffffffffffffffffffffffffffffffffffffffff16827fc9b41512a53538e51a2137dca9316e60eba411addb61b6da02aae548ed183e4c87878760405161140493929190611b4e565b60405180910390a4505050505050565b82805461142090611e45565b90600052602060002090601f0160209004810192826114425760008555611489565b82601f1061145b57805160ff1916838001178555611489565b82800160010185558215611489579182015b8281111561148857825182559160200191906001019061146d565b5b509050611496919061150b565b5090565b60405180610100016040528060008152602001600073ffffffffffffffffffffffffffffffffffffffff168152602001600073ffffffffffffffffffffffffffffffffffffffff16815260200160608152602001606081526020016000815260200160608152602001600081525090565b5b8082111561152457600081600090555060010161150c565b5090565b600061153b61153684611cf8565b611cc7565b90508281526020810184848401111561155357600080fd5b61155e848285611e03565b509392505050565b60008135905061157581611f5e565b92915050565b600082601f83011261158c57600080fd5b813561159c848260208601611528565b91505092915050565b6000813590506115b481611f75565b92915050565b6000602082840312156115cc57600080fd5b60006115da84828501611566565b91505092915050565b6000806000606084860312156115f857600080fd5b600061160686828701611566565b935050602084013567ffffffffffffffff81111561162357600080fd5b61162f8682870161157b565b925050604084013567ffffffffffffffff81111561164c57600080fd5b6116588682870161157b565b9150509250925092565b600080600080600060a0868803121561167a57600080fd5b600061168888828901611566565b955050602086013567ffffffffffffffff8111156116a557600080fd5b6116b18882890161157b565b945050604086013567ffffffffffffffff8111156116ce57600080fd5b6116da8882890161157b565b93505060606116eb888289016115a5565b925050608086013567ffffffffffffffff81111561170857600080fd5b6117148882890161157b565b9150509295509295909350565b60006020828403121561173357600080fd5b6000611741848285016115a5565b91505092915050565b6000611756838361196c565b905092915050565b600061176a83836119e9565b905092915050565b61177b81611dc7565b82525050565b61178a81611dc7565b82525050565b600061179b82611d48565b6117a58185611d83565b9350836020820285016117b785611d28565b8060005b858110156117f357848403895281516117d4858261174a565b94506117df83611d69565b925060208a019950506001810190506117bb565b50829750879550505050505092915050565b600061181082611d53565b61181a8185611d94565b93508360208202850161182c85611d38565b8060005b858110156118685784840389528151611849858261175e565b945061185483611d76565b925060208a01995050600181019050611830565b50829750879550505050505092915050565b600061188582611d5e565b61188f8185611da5565b935061189f818560208601611e12565b6118a881611f4d565b840191505092915050565b60006118be82611d5e565b6118c88185611db6565b93506118d8818560208601611e12565b6118e181611f4d565b840191505092915050565b60006118f9601783611db6565b91507f496e76616c696420707265736372697074696f6e2049440000000000000000006000830152602082019050919050565b6000611939601383611db6565b91507f556e617574686f72697a656420616363657373000000000000000000000000006000830152602082019050919050565b600060a0830160008301516119846000860182611aa7565b5060208301516119976020860182611772565b50604083015184820360408601526119af828261187a565b915050606083015184820360608601526119c9828261187a565b91505060808301516119de6080860182611aa7565b508091505092915050565b600061010083016000830151611a026000860182611aa7565b506020830151611a156020860182611772565b506040830151611a286040860182611772565b5060608301518482036060860152611a40828261187a565b91505060808301518482036080860152611a5a828261187a565b91505060a0830151611a6f60a0860182611aa7565b5060c083015184820360c0860152611a87828261187a565b91505060e0830151611a9c60e0860182611aa7565b508091505092915050565b611ab081611df9565b82525050565b611abf81611df9565b82525050565b60006020820190508181036000830152611adf8184611790565b905092915050565b60006020820190508181036000830152611b018184611805565b905092915050565b60006060820190508181036000830152611b2381866118b3565b90508181036020830152611b3781856118b3565b9050611b466040830184611ab6565b949350505050565b60006060820190508181036000830152611b6881866118b3565b9050611b776020830185611ab6565b8181036040830152611b8981846118b3565b9050949350505050565b60006020820190508181036000830152611bac816118ec565b9050919050565b60006020820190508181036000830152611bcc8161192c565b9050919050565b600061010082019050611be9600083018b611ab6565b611bf6602083018a611781565b611c036040830189611781565b8181036060830152611c1581886118b3565b90508181036080830152611c2981876118b3565b9050611c3860a0830186611ab6565b81810360c0830152611c4a81856118b3565b9050611c5960e0830184611ab6565b9998505050505050505050565b600060a082019050611c7b6000830188611ab6565b611c886020830187611781565b8181036040830152611c9a81866118b3565b90508181036060830152611cae81856118b3565b9050611cbd6080830184611ab6565b9695505050505050565b6000604051905081810181811067ffffffffffffffff82111715611cee57611ced611f1e565b5b8060405250919050565b600067ffffffffffffffff821115611d1357611d12611f1e565b5b601f19601f8301169050602081019050919050565b6000819050602082019050919050565b6000819050602082019050919050565b600081519050919050565b600081519050919050565b600081519050919050565b6000602082019050919050565b6000602082019050919050565b600082825260208201905092915050565b600082825260208201905092915050565b600082825260208201905092915050565b600082825260208201905092915050565b6000611dd282611dd9565b9050919050565b600073ffffffffffffffffffffffffffffffffffffffff82169050919050565b6000819050919050565b82818337600083830152505050565b60005b83811015611e30578082015181840152602081019050611e15565b83811115611e3f576000848401525b50505050565b60006002820490506001821680611e5d57607f821691505b60208210811415611e7157611e70611eef565b5b50919050565b6000611e8282611df9565b91507fffffffffffffffffffffffffffffffffffffffffffffffffffffffffffffffff821415611eb557611eb4611ec0565b5b600182019050919050565b7f4e487b7100000000000000000000000000000000000000000000000000000000600052601160045260246000fd5b7f4e487b7100000000000000000000000000000000000000000000000000000000600052602260045260246000fd5b7f4e487b7100000000000000000000000000000000000000000000000000000000600052604160045260246000fd5b6000601f19601f8301169050919050565b611f6781611dc7565b8114611f7257600080fd5b50565b611f7e81611df9565b8114611f8957600080fd5b5056fea26469706673582212207760d5c80c561b154851eb8f3d68ee8e714dce86403c91068af28b637fa463d064736f6c63430008000033",
  "immutableReferences": {},
  "source": "// SPDX-License-Identifier: MIT\r\npragma solidity ^0.8.0;\r\n\r\ncontract MedicalRecords {\r\n    struct Prescription {\r\n        uint256 id;\r\n        address doctor;\r\n        address patient;\r\n        string encryptedData;  // Encrypted prescription details\r\n        string timings;\r\n        uint256 durationDays;\r\n        string comments;\r\n        uint256 timestamp;\r\n    }\r\n\r\n    struct LogEntry {\r\n        uint256 id;\r\n        address user;\r\n        string role;\r\n        string action;\r\n        uint256 timestamp;\r\n    }\r\n\r\n    Prescription[] public prescriptions; // Dynamic array for prescriptions\r\n    LogEntry[] public logs; // Dynamic array for logs\r\n\r\n    event PrescriptionAdded(uint256 indexed id, address indexed doctor, address indexed patient, string timings, uint256 durationDays, string comments);\r\n    event ActionLogged(uint256 indexed id, address indexed user, string role, string action, uint256 timestamp);\r\n\r\n    // Add a new prescription (Only Doctors)\r\n    function addPrescription(\r\n        address _patient, \r\n        string memory _encryptedData, \r\n        string memory _timings, \r\n        uint256 _days, \r\n        string memory _comments\r\n    ) public {\r\n        uint256 prescriptionId = prescriptions.length; // ID is array index\r\n        prescriptions.push(Prescription(\r\n            prescriptionId,\r\n            msg.sender, \r\n            _patient, \r\n            _encryptedData, \r\n            _timings, \r\n            _days, \r\n            _comments, \r\n            block.timestamp\r\n        ));\r\n        \r\n        emit PrescriptionAdded(prescriptionId, msg.sender, _patient, _timings, _days, _comments);\r\n    }\r\n\r\n    // Retrieve a prescription (Only Doctor or Patient)\r\n    function getPrescription(uint256 _id) public view returns (\r\n        uint256, address, address, string memory, string memory, uint256, string memory, uint256\r\n    ) {\r\n        require(_id < prescriptions.length, \"Invalid prescription ID\");\r\n        Prescription memory pres = prescriptions[_id];\r\n        require(pres.patient == msg.sender || pres.doctor == msg.sender, \"Unauthorized access\");\r\n        \r\n        return (pres.id, pres.doctor, pres.patient, pres.encryptedData, pres.timings, pres.durationDays, pres.comments, pres.timestamp);\r\n    }\r\n\r\n    // Retrieve all prescriptions for a patient\r\n    function getAllPrescriptions(address _patient) public view returns (Prescription[] memory) {\r\n        uint256 count = 0;\r\n\r\n        // Count how many prescriptions belong to the patient\r\n        for (uint256 i = 0; i < prescriptions.length; i++) {\r\n            if (prescriptions[i].patient == _patient) {\r\n                count++;\r\n            }\r\n        }\r\n\r\n        // Create a new array with the correct size\r\n        Prescription[] memory result = new Prescription[](count);\r\n        uint256 index = 0;\r\n\r\n        for (uint256 i = 0; i < prescriptions.length; i++) {\r\n            if (prescriptions[i].patient == _patient) {\r\n                result[index] = prescriptions[i];\r\n                index++;\r\n            }\r\n        }\r\n\r\n        return result;\r\n    }\r\n\r\n    // Log an action (Admin/Doctor)\r\n    function logAction(address _user, string memory _role, string memory _action) public {\r\n        uint256 logId = logs.length;\r\n        logs.push(LogEntry(\r\n            logId,\r\n            _user,\r\n            _role,\r\n            _action,\r\n            block.timestamp\r\n        ));\r\n        \r\n        emit ActionLogged(logId, _user, _role, _action, block.timestamp);\r\n    }\r\n\r\n    // Retrieve all logs from blockchain\r\n    function getAllLogs() public view returns (LogEntry[] memory) {\r\n        return logs;\r\n    }\r\n}\r\n\r\n",
  "sourcePath": "D:\\Major_Project\\practice2\\contracts\\MedicalRecords.sol",
  "compiler": {
    "name": "solc",
    "version": "0.8.0+commit.c7dfd78e.Emscripten.clang"
  },
  "schemaVersion": "3.4.16",
  "updatedAt": "2025-02-03T14:44:56.159Z",
  "networkType": "ethereum",
  "devdoc": {
    "kind": "dev",
    "methods": {},
    "version": 1
  },
  "userdoc": {
    "kind": "user",
    "methods": {},
    "version": 1
  }
}