{
  "contractName": "MedicalRecords",
  "abi": [
    {
      "anonymous": false,
      "inputs": [
        {
          "indexed": true,
          "internalType": "uint256",
          "name": "id",
          "type": "uint256"
        },
        {
          "indexed": true,
          "internalType": "address",
          "name": "user",
          "type": "address"
        },
        {
          "indexed": false,
          "internalType": "string",
          "name": "role",
          "type": "string"
        },
        {
          "indexed": false,
          "internalType": "string",
          "name": "action",
          "type": "string"
        },
        {
          "indexed": false,
          "internalType": "uint256",
          "name": "timestamp",
          "type": "uint256"
        }
      ],
      "name": "ActionLogged",
      "type": "event"
    },
    {
      "anonymous": false,
      "inputs": [
        {
          "indexed": true,
          "internalType": "uint256",
          "name": "id",
          "type": "uint256"
        },
        {
          "indexed": true,
          "internalType": "address",
          "name": "doctor",
          "type": "address"
        },
        {
          "indexed": true,
          "internalType": "address",
          "name": "patient",
          "type": "address"
        },
        {
          "indexed": false,
          "internalType": "string",
          "name": "timings",
          "type": "string"
        },
        {
          "indexed": false,
          "internalType": "uint256",
          "name": "durationDays",
          "type": "uint256"
        },
        {
          "indexed": false,
          "internalType": "string",
          "name": "comments",
          "type": "string"
        }
      ],
      "name": "PrescriptionAdded",
      "type": "event"
    },
    {
      "anonymous": false,
      "inputs": [
        {
          "indexed": true,
          "internalType": "address",
          "name": "user",
          "type": "address"
        },
        {
          "indexed": false,
          "internalType": "string",
          "name": "publicKey",
          "type": "string"
        }
      ],
      "name": "PublicKeySet",
      "type": "event"
    },
    {
      "inputs": [
        {
          "internalType": "uint256",
          "name": "",
          "type": "uint256"
        }
      ],
      "name": "logs",
      "outputs": [
        {
          "internalType": "uint256",
          "name": "id",
          "type": "uint256"
        },
        {
          "internalType": "address",
          "name": "user",
          "type": "address"
        },
        {
          "internalType": "string",
          "name": "role",
          "type": "string"
        },
        {
          "internalType": "string",
          "name": "action",
          "type": "string"
        },
        {
          "internalType": "uint256",
          "name": "timestamp",
          "type": "uint256"
        }
      ],
      "stateMutability": "view",
      "type": "function",
      "constant": true
    },
    {
      "inputs": [],
      "name": "prescriptionCount",
      "outputs": [
        {
          "internalType": "uint256",
          "name": "",
          "type": "uint256"
        }
      ],
      "stateMutability": "view",
      "type": "function",
      "constant": true
    },
    {
      "inputs": [
        {
          "internalType": "uint256",
          "name": "",
          "type": "uint256"
        }
      ],
      "name": "prescriptions",
      "outputs": [
        {
          "internalType": "uint256",
          "name": "id",
          "type": "uint256"
        },
        {
          "internalType": "address",
          "name": "doctor",
          "type": "address"
        },
        {
          "internalType": "address",
          "name": "patient",
          "type": "address"
        },
        {
          "internalType": "string",
          "name": "encryptedData",
          "type": "string"
        },
        {
          "internalType": "string",
          "name": "timings",
          "type": "string"
        },
        {
          "internalType": "uint256",
          "name": "durationDays",
          "type": "uint256"
        },
        {
          "internalType": "string",
          "name": "comments",
          "type": "string"
        },
        {
          "internalType": "uint256",
          "name": "timestamp",
          "type": "uint256"
        }
      ],
      "stateMutability": "view",
      "type": "function",
      "constant": true
    },
    {
      "inputs": [
        {
          "internalType": "address",
          "name": "",
          "type": "address"
        }
      ],
      "name": "publicKeys",
      "outputs": [
        {
          "internalType": "string",
          "name": "",
          "type": "string"
        }
      ],
      "stateMutability": "view",
      "type": "function",
      "constant": true
    },
    {
      "inputs": [
        {
          "internalType": "address",
          "name": "_user",
          "type": "address"
        },
        {
          "internalType": "string",
          "name": "_publicKey",
          "type": "string"
        }
      ],
      "name": "setPublicKey",
      "outputs": [],
      "stateMutability": "nonpayable",
      "type": "function"
    },
    {
      "inputs": [
        {
          "internalType": "address",
          "name": "_patient",
          "type": "address"
        },
        {
          "internalType": "string",
          "name": "_encryptedData",
          "type": "string"
        },
        {
          "internalType": "string",
          "name": "_timings",
          "type": "string"
        },
        {
          "internalType": "uint256",
          "name": "_days",
          "type": "uint256"
        },
        {
          "internalType": "string",
          "name": "_comments",
          "type": "string"
        }
      ],
      "name": "addPrescription",
      "outputs": [],
      "stateMutability": "nonpayable",
      "type": "function"
    },
    {
      "inputs": [
        {
          "internalType": "uint256",
          "name": "_id",
          "type": "uint256"
        }
      ],
      "name": "getPrescription",
      "outputs": [
        {
          "internalType": "uint256",
          "name": "",
          "type": "uint256"
        },
        {
          "internalType": "address",
          "name": "",
          "type": "address"
        },
        {
          "internalType": "address",
          "name": "",
          "type": "address"
        },
        {
          "internalType": "string",
          "name": "",
          "type": "string"
        },
        {
          "internalType": "string",
          "name": "",
          "type": "string"
        },
        {
          "internalType": "uint256",
          "name": "",
          "type": "uint256"
        },
        {
          "internalType": "string",
          "name": "",
          "type": "string"
        },
        {
          "internalType": "uint256",
          "name": "",
          "type": "uint256"
        }
      ],
      "stateMutability": "view",
      "type": "function",
      "constant": true
    },
    {
      "inputs": [
        {
          "internalType": "address",
          "name": "_patient",
          "type": "address"
        }
      ],
      "name": "getAllPrescriptions",
      "outputs": [
        {
          "components": [
            {
              "internalType": "uint256",
              "name": "id",
              "type": "uint256"
            },
            {
              "internalType": "address",
              "name": "doctor",
              "type": "address"
            },
            {
              "internalType": "address",
              "name": "patient",
              "type": "address"
            },
            {
              "internalType": "string",
              "name": "encryptedData",
              "type": "string"
            },
            {
              "internalType": "string",
              "name": "timings",
              "type": "string"
            },
            {
              "internalType": "uint256",
              "name": "durationDays",
              "type": "uint256"
            },
            {
              "internalType": "string",
              "name": "comments",
              "type": "string"
            },
            {
              "internalType": "uint256",
              "name": "timestamp",
              "type": "uint256"
            }
          ],
          "internalType": "struct MedicalRecords.Prescription[]",
          "name": "",
          "type": "tuple[]"
        }
      ],
      "stateMutability": "view",
      "type": "function",
      "constant": true
    },
    {
      "inputs": [
        {
          "internalType": "address",
          "name": "_user",
          "type": "address"
        },
        {
          "internalType": "string",
          "name": "_role",
          "type": "string"
        },
        {
          "internalType": "string",
          "name": "_action",
          "type": "string"
        }
      ],
      "name": "logAction",
      "outputs": [],
      "stateMutability": "nonpayable",
      "type": "function"
    },
    {
      "inputs": [],
      "name": "getAllLogs",
      "outputs": [
        {
          "components": [
            {
              "internalType": "uint256",
              "name": "id",
              "type": "uint256"
            },
            {
              "internalType": "address",
              "name": "user",
              "type": "address"
            },
            {
              "internalType": "string",
              "name": "role",
              "type": "string"
            },
            {
              "internalType": "string",
              "name": "action",
              "type": "string"
            },
            {
              "internalType": "uint256",
              "name": "timestamp",
              "type": "uint256"
            }
          ],
          "internalType": "struct MedicalRecords.LogEntry[]",
          "name": "",
          "type": "tuple[]"
        }
      ],
      "stateMutability": "view",
      "type": "function",
      "constant": true
    }
  ],
  "bytecode": "0x608060405234801561001057600080fd5b50612062806100206000396000f3fe608060405234801561001057600080fd5b506004361061009e5760003560e01c8063b655849811610066578063b655849814610179578063c6a10b3814610197578063e581329b146101c7578063e79899bd146101e5578063f0e641b9146102195761009e565b80632f67d416146100a357806331dfc91b146100bf5780635bfc6872146100f65780636f16af1014610112578063a3d6f9a914610149575b600080fd5b6100bd60048036038101906100b89190611652565b610235565b005b6100d960048036038101906100d491906117e4565b6102db565b6040516100ed989796959493929190611c73565b60405180910390f35b610110600480360381019061010b91906116a6565b6104fb565b005b61012c600480360381019061012791906117e4565b61065d565b604051610140989796959493929190611c73565b60405180910390f35b610163600480360381019061015e9190611629565b610a5f565b6040516101709190611b8c565b60405180910390f35b610181610aff565b60405161018e9190611c58565b60405180910390f35b6101b160048036038101906101ac9190611629565b610b05565b6040516101be9190611b6a565b60405180910390f35b6101cf610f13565b6040516101dc9190611b48565b60405180910390f35b6101ff60048036038101906101fa91906117e4565b611100565b604051610210959493929190611d06565b60405180910390f35b610233600480360381019061022e9190611725565b611276565b005b80600260008473ffffffffffffffffffffffffffffffffffffffff1673ffffffffffffffffffffffffffffffffffffffff1681526020019081526020016000209080519060200190610288929190611483565b508173ffffffffffffffffffffffffffffffffffffffff167f04e4e591d22d14223bc0c2a948352d1a93ba82695e446ca5f8b238cfa7d69304826040516102cf9190611b8c565b60405180910390a25050565b60006020528060005260406000206000915090508060000154908060010160009054906101000a900473ffffffffffffffffffffffffffffffffffffffff16908060020160009054906101000a900473ffffffffffffffffffffffffffffffffffffffff169080600301805461035090611ee5565b80601f016020809104026020016040519081016040528092919081815260200182805461037c90611ee5565b80156103c95780601f1061039e576101008083540402835291602001916103c9565b820191906000526020600020905b8154815290600101906020018083116103ac57829003601f168201915b5050505050908060040180546103de90611ee5565b80601f016020809104026020016040519081016040528092919081815260200182805461040a90611ee5565b80156104575780601f1061042c57610100808354040283529160200191610457565b820191906000526020600020905b81548152906001019060200180831161043a57829003601f168201915b50505050509080600501549080600601805461047290611ee5565b80601f016020809104026020016040519081016040528092919081815260200182805461049e90611ee5565b80156104eb5780601f106104c0576101008083540402835291602001916104eb565b820191906000526020600020905b8154815290600101906020018083116104ce57829003601f168201915b5050505050908060070154905088565b6000600380549050905060036040518060a001604052808381526020018673ffffffffffffffffffffffffffffffffffffffff1681526020018581526020018481526020014281525090806001815401808255809150506001900390600052602060002090600502016000909190919091506000820151816000015560208201518160010160006101000a81548173ffffffffffffffffffffffffffffffffffffffff021916908373ffffffffffffffffffffffffffffffffffffffff16021790555060408201518160020190805190602001906105da929190611483565b5060608201518160030190805190602001906105f7929190611483565b506080820151816004015550508373ffffffffffffffffffffffffffffffffffffffff16817f1a68c62ce2cafedeb8c4563ae1f23f81f5850dbbacc97a655992d573925a6dd085854260405161064f93929190611bae565b60405180910390a350505050565b60008060006060806000606060003373ffffffffffffffffffffffffffffffffffffffff166000808b815260200190815260200160002060020160009054906101000a900473ffffffffffffffffffffffffffffffffffffffff1673ffffffffffffffffffffffffffffffffffffffff16148061073a57503373ffffffffffffffffffffffffffffffffffffffff166000808b815260200190815260200160002060010160009054906101000a900473ffffffffffffffffffffffffffffffffffffffff1673ffffffffffffffffffffffffffffffffffffffff16145b610779576040517f08c379a000000000000000000000000000000000000000000000000000000000815260040161077090611c38565b60405180910390fd5b60008060008b815260200190815260200160002060405180610100016040529081600082015481526020016001820160009054906101000a900473ffffffffffffffffffffffffffffffffffffffff1673ffffffffffffffffffffffffffffffffffffffff1673ffffffffffffffffffffffffffffffffffffffff1681526020016002820160009054906101000a900473ffffffffffffffffffffffffffffffffffffffff1673ffffffffffffffffffffffffffffffffffffffff1673ffffffffffffffffffffffffffffffffffffffff16815260200160038201805461085f90611ee5565b80601f016020809104026020016040519081016040528092919081815260200182805461088b90611ee5565b80156108d85780601f106108ad576101008083540402835291602001916108d8565b820191906000526020600020905b8154815290600101906020018083116108bb57829003601f168201915b505050505081526020016004820180546108f190611ee5565b80601f016020809104026020016040519081016040528092919081815260200182805461091d90611ee5565b801561096a5780601f1061093f5761010080835404028352916020019161096a565b820191906000526020600020905b81548152906001019060200180831161094d57829003601f168201915b505050505081526020016005820154815260200160068201805461098d90611ee5565b80601f01602080910402602001604051908101604052809291908181526020018280546109b990611ee5565b8015610a065780601f106109db57610100808354040283529160200191610a06565b820191906000526020600020905b8154815290600101906020018083116109e957829003601f168201915b505050505081526020016007820154815250509050806000015181602001518260400151836060015184608001518560a001518660c001518760e001519850985098509850985098509850985050919395975091939597565b60026020528060005260406000206000915090508054610a7e90611ee5565b80601f0160208091040260200160405190810160405280929190818152602001828054610aaa90611ee5565b8015610af75780601f10610acc57610100808354040283529160200191610af7565b820191906000526020600020905b815481529060010190602001808311610ada57829003601f168201915b505050505081565b60015481565b6060600060015467ffffffffffffffff811115610b4b577f4e487b7100000000000000000000000000000000000000000000000000000000600052604160045260246000fd5b604051908082528060200260200182016040528015610b8457816020015b610b71611509565b815260200190600190039081610b695790505b509050600080600190505b6001548111610f05578473ffffffffffffffffffffffffffffffffffffffff1660008083815260200190815260200160002060020160009054906101000a900473ffffffffffffffffffffffffffffffffffffffff1673ffffffffffffffffffffffffffffffffffffffff161415610ef25760008082815260200190815260200160002060405180610100016040529081600082015481526020016001820160009054906101000a900473ffffffffffffffffffffffffffffffffffffffff1673ffffffffffffffffffffffffffffffffffffffff1673ffffffffffffffffffffffffffffffffffffffff1681526020016002820160009054906101000a900473ffffffffffffffffffffffffffffffffffffffff1673ffffffffffffffffffffffffffffffffffffffff1673ffffffffffffffffffffffffffffffffffffffff168152602001600382018054610ce590611ee5565b80601f0160208091040260200160405190810160405280929190818152602001828054610d1190611ee5565b8015610d5e5780601f10610d3357610100808354040283529160200191610d5e565b820191906000526020600020905b815481529060010190602001808311610d4157829003601f168201915b50505050508152602001600482018054610d7790611ee5565b80601f0160208091040260200160405190810160405280929190818152602001828054610da390611ee5565b8015610df05780601f10610dc557610100808354040283529160200191610df0565b820191906000526020600020905b815481529060010190602001808311610dd357829003601f168201915b5050505050815260200160058201548152602001600682018054610e1390611ee5565b80601f0160208091040260200160405190810160405280929190818152602001828054610e3f90611ee5565b8015610e8c5780601f10610e6157610100808354040283529160200191610e8c565b820191906000526020600020905b815481529060010190602001808311610e6f57829003601f168201915b50505050508152602001600782015481525050838381518110610ed8577f4e487b7100000000000000000000000000000000000000000000000000000000600052603260045260246000fd5b60200260200101819052508180610eee90611f17565b9250505b8080610efd90611f17565b915050610b8f565b508082528192505050919050565b60606003805480602002602001604051908101604052809291908181526020016000905b828210156110f757838290600052602060002090600502016040518060a0016040529081600082015481526020016001820160009054906101000a900473ffffffffffffffffffffffffffffffffffffffff1673ffffffffffffffffffffffffffffffffffffffff1673ffffffffffffffffffffffffffffffffffffffff168152602001600282018054610fca90611ee5565b80601f0160208091040260200160405190810160405280929190818152602001828054610ff690611ee5565b80156110435780601f1061101857610100808354040283529160200191611043565b820191906000526020600020905b81548152906001019060200180831161102657829003601f168201915b5050505050815260200160038201805461105c90611ee5565b80601f016020809104026020016040519081016040528092919081815260200182805461108890611ee5565b80156110d55780601f106110aa576101008083540402835291602001916110d5565b820191906000526020600020905b8154815290600101906020018083116110b857829003601f168201915b5050505050815260200160048201548152505081526020019060010190610f37565b50505050905090565b6003818154811061111057600080fd5b90600052602060002090600502016000915090508060000154908060010160009054906101000a900473ffffffffffffffffffffffffffffffffffffffff169080600201805461115f90611ee5565b80601f016020809104026020016040519081016040528092919081815260200182805461118b90611ee5565b80156111d85780601f106111ad576101008083540402835291602001916111d8565b820191906000526020600020905b8154815290600101906020018083116111bb57829003601f168201915b5050505050908060030180546111ed90611ee5565b80601f016020809104026020016040519081016040528092919081815260200182805461121990611ee5565b80156112665780601f1061123b57610100808354040283529160200191611266565b820191906000526020600020905b81548152906001019060200180831161124957829003601f168201915b5050505050908060040154905085565b6001600081548092919061128990611f17565b919050555060405180610100016040528060015481526020013373ffffffffffffffffffffffffffffffffffffffff1681526020018673ffffffffffffffffffffffffffffffffffffffff1681526020018581526020018481526020018381526020018281526020014281525060008060015481526020019081526020016000206000820151816000015560208201518160010160006101000a81548173ffffffffffffffffffffffffffffffffffffffff021916908373ffffffffffffffffffffffffffffffffffffffff16021790555060408201518160020160006101000a81548173ffffffffffffffffffffffffffffffffffffffff021916908373ffffffffffffffffffffffffffffffffffffffff16021790555060608201518160030190805190602001906113be929190611483565b5060808201518160040190805190602001906113db929190611483565b5060a0820151816005015560c0820151816006019080519060200190611402929190611483565b5060e082015181600701559050508473ffffffffffffffffffffffffffffffffffffffff163373ffffffffffffffffffffffffffffffffffffffff166001547fc9b41512a53538e51a2137dca9316e60eba411addb61b6da02aae548ed183e4c86868660405161147493929190611bf3565b60405180910390a45050505050565b82805461148f90611ee5565b90600052602060002090601f0160209004810192826114b157600085556114f8565b82601f106114ca57805160ff19168380011785556114f8565b828001600101855582156114f8579182015b828111156114f75782518255916020019190600101906114dc565b5b509050611505919061157a565b5090565b60405180610100016040528060008152602001600073ffffffffffffffffffffffffffffffffffffffff168152602001600073ffffffffffffffffffffffffffffffffffffffff16815260200160608152602001606081526020016000815260200160608152602001600081525090565b5b8082111561159357600081600090555060010161157b565b5090565b60006115aa6115a584611d98565b611d67565b9050828152602081018484840111156115c257600080fd5b6115cd848285611ea3565b509392505050565b6000813590506115e481611ffe565b92915050565b600082601f8301126115fb57600080fd5b813561160b848260208601611597565b91505092915050565b60008135905061162381612015565b92915050565b60006020828403121561163b57600080fd5b6000611649848285016115d5565b91505092915050565b6000806040838503121561166557600080fd5b6000611673858286016115d5565b925050602083013567ffffffffffffffff81111561169057600080fd5b61169c858286016115ea565b9150509250929050565b6000806000606084860312156116bb57600080fd5b60006116c9868287016115d5565b935050602084013567ffffffffffffffff8111156116e657600080fd5b6116f2868287016115ea565b925050604084013567ffffffffffffffff81111561170f57600080fd5b61171b868287016115ea565b9150509250925092565b600080600080600060a0868803121561173d57600080fd5b600061174b888289016115d5565b955050602086013567ffffffffffffffff81111561176857600080fd5b611774888289016115ea565b945050604086013567ffffffffffffffff81111561179157600080fd5b61179d888289016115ea565b93505060606117ae88828901611614565b925050608086013567ffffffffffffffff8111156117cb57600080fd5b6117d7888289016115ea565b9150509295509295909350565b6000602082840312156117f657600080fd5b600061180484828501611614565b91505092915050565b600061181983836119ef565b905092915050565b600061182d8383611a6c565b905092915050565b61183e81611e67565b82525050565b61184d81611e67565b82525050565b600061185e82611de8565b6118688185611e23565b93508360208202850161187a85611dc8565b8060005b858110156118b65784840389528151611897858261180d565b94506118a283611e09565b925060208a0199505060018101905061187e565b50829750879550505050505092915050565b60006118d382611df3565b6118dd8185611e34565b9350836020820285016118ef85611dd8565b8060005b8581101561192b578484038952815161190c8582611821565b945061191783611e16565b925060208a019950506001810190506118f3565b50829750879550505050505092915050565b600061194882611dfe565b6119528185611e45565b9350611962818560208601611eb2565b61196b81611fed565b840191505092915050565b600061198182611dfe565b61198b8185611e56565b935061199b818560208601611eb2565b6119a481611fed565b840191505092915050565b60006119bc601383611e56565b91507f556e617574686f72697a656420616363657373000000000000000000000000006000830152602082019050919050565b600060a083016000830151611a076000860182611b2a565b506020830151611a1a6020860182611835565b5060408301518482036040860152611a32828261193d565b91505060608301518482036060860152611a4c828261193d565b9150506080830151611a616080860182611b2a565b508091505092915050565b600061010083016000830151611a856000860182611b2a565b506020830151611a986020860182611835565b506040830151611aab6040860182611835565b5060608301518482036060860152611ac3828261193d565b91505060808301518482036080860152611add828261193d565b91505060a0830151611af260a0860182611b2a565b5060c083015184820360c0860152611b0a828261193d565b91505060e0830151611b1f60e0860182611b2a565b508091505092915050565b611b3381611e99565b82525050565b611b4281611e99565b82525050565b60006020820190508181036000830152611b628184611853565b905092915050565b60006020820190508181036000830152611b8481846118c8565b905092915050565b60006020820190508181036000830152611ba68184611976565b905092915050565b60006060820190508181036000830152611bc88186611976565b90508181036020830152611bdc8185611976565b9050611beb6040830184611b39565b949350505050565b60006060820190508181036000830152611c0d8186611976565b9050611c1c6020830185611b39565b8181036040830152611c2e8184611976565b9050949350505050565b60006020820190508181036000830152611c51816119af565b9050919050565b6000602082019050611c6d6000830184611b39565b92915050565b600061010082019050611c89600083018b611b39565b611c96602083018a611844565b611ca36040830189611844565b8181036060830152611cb58188611976565b90508181036080830152611cc98187611976565b9050611cd860a0830186611b39565b81810360c0830152611cea8185611976565b9050611cf960e0830184611b39565b9998505050505050505050565b600060a082019050611d1b6000830188611b39565b611d286020830187611844565b8181036040830152611d3a8186611976565b90508181036060830152611d4e8185611976565b9050611d5d6080830184611b39565b9695505050505050565b6000604051905081810181811067ffffffffffffffff82111715611d8e57611d8d611fbe565b5b8060405250919050565b600067ffffffffffffffff821115611db357611db2611fbe565b5b601f19601f8301169050602081019050919050565b6000819050602082019050919050565b6000819050602082019050919050565b600081519050919050565b600081519050919050565b600081519050919050565b6000602082019050919050565b6000602082019050919050565b600082825260208201905092915050565b600082825260208201905092915050565b600082825260208201905092915050565b600082825260208201905092915050565b6000611e7282611e79565b9050919050565b600073ffffffffffffffffffffffffffffffffffffffff82169050919050565b6000819050919050565b82818337600083830152505050565b60005b83811015611ed0578082015181840152602081019050611eb5565b83811115611edf576000848401525b50505050565b60006002820490506001821680611efd57607f821691505b60208210811415611f1157611f10611f8f565b5b50919050565b6000611f2282611e99565b91507fffffffffffffffffffffffffffffffffffffffffffffffffffffffffffffffff821415611f5557611f54611f60565b5b600182019050919050565b7f4e487b7100000000000000000000000000000000000000000000000000000000600052601160045260246000fd5b7f4e487b7100000000000000000000000000000000000000000000000000000000600052602260045260246000fd5b7f4e487b7100000000000000000000000000000000000000000000000000000000600052604160045260246000fd5b6000601f19601f8301169050919050565b61200781611e67565b811461201257600080fd5b50565b61201e81611e99565b811461202957600080fd5b5056fea26469706673582212200b393ab5ef4c45c314bb60f0329394445835f4ffa5aea91fea90163933b2028764736f6c63430008000033",
  "immutableReferences": {},
  "source": "// SPDX-License-Identifier: MIT\r\npragma solidity ^0.8.0;\r\n\r\ncontract MedicalRecords {\r\n    struct LogEntry {\r\n        uint256 id;\r\n        address user;\r\n        string role;\r\n        string action;\r\n        uint256 timestamp;\r\n    }\r\n\r\n    struct Prescription {\r\n        uint256 id;\r\n        address doctor;\r\n        address patient;\r\n        string encryptedData;  \r\n        string timings;\r\n        uint256 durationDays;\r\n        string comments;\r\n        uint256 timestamp;\r\n    }\r\n\r\n    mapping(uint256 => Prescription) public prescriptions;\r\n    // mapping(address => string) public publicKeys; // Store public keys\r\n    uint256 public prescriptionCount;\r\n\r\n    event PrescriptionAdded(uint256 indexed id, address indexed doctor, address indexed patient, string timings, uint256 durationDays, string comments);\r\n    mapping(address => string) public publicKeys;\r\n\r\n    event PublicKeySet(address indexed user, string publicKey);\r\n\r\n    function setPublicKey(address _user, string memory _publicKey) public {\r\n        publicKeys[_user] = _publicKey;\r\n        emit PublicKeySet(_user, _publicKey);\r\n    }\r\n\r\n\r\n    // Add a new prescription (Only Doctors)\r\n    function addPrescription(address _patient, string memory _encryptedData, string memory _timings, uint256 _days, string memory _comments) public {\r\n        prescriptionCount++;\r\n        prescriptions[prescriptionCount] = Prescription(\r\n            prescriptionCount,\r\n            msg.sender, \r\n            _patient, \r\n            _encryptedData, \r\n            _timings, \r\n            _days, \r\n            _comments, \r\n            block.timestamp\r\n        );\r\n        \r\n        emit PrescriptionAdded(prescriptionCount, msg.sender, _patient, _timings, _days, _comments);\r\n    }\r\n\r\n    // Retrieve a prescription (Only Doctor or Patient)\r\n    function getPrescription(uint256 _id) public view returns (uint256, address, address, string memory, string memory, uint256, string memory, uint256) {\r\n        require(prescriptions[_id].patient == msg.sender || prescriptions[_id].doctor == msg.sender, \"Unauthorized access\");\r\n        \r\n        Prescription memory pres = prescriptions[_id];\r\n        return (pres.id, pres.doctor, pres.patient, pres.encryptedData, pres.timings, pres.durationDays, pres.comments, pres.timestamp);\r\n    }\r\n\r\n\r\n    // Retrieve all prescriptions for a patient\r\n    function getAllPrescriptions(address _patient) public view returns (Prescription[] memory) {\r\n        Prescription[] memory result = new Prescription[](prescriptionCount);\r\n        uint count = 0;\r\n        \r\n        for (uint i = 1; i <= prescriptionCount; i++) {\r\n            if (prescriptions[i].patient == _patient) {\r\n                result[count] = prescriptions[i];\r\n                count++;\r\n            }\r\n        }\r\n\r\n        // Resize the array to remove empty slots\r\n        assembly { mstore(result, count) }\r\n        return result;\r\n    }\r\n\r\n    // Prescription[] public prescriptions; // Dynamic array for prescriptions\r\n    LogEntry[] public logs; // Dynamic array for logs\r\n\r\n    // event PrescriptionAdded(uint256 indexed id, address indexed doctor, address indexed patient, string timings, uint256 durationDays, string comments);\r\n    event ActionLogged(uint256 indexed id, address indexed user, string role, string action, uint256 timestamp);\r\n\r\n    // Log an action (Admin/Doctor)\r\n    function logAction(address _user, string memory _role, string memory _action) public {\r\n        uint256 logId = logs.length;\r\n        logs.push(LogEntry(\r\n            logId,\r\n            _user,\r\n            _role,\r\n            _action,\r\n            block.timestamp\r\n        ));\r\n        \r\n        emit ActionLogged(logId, _user, _role, _action, block.timestamp);\r\n    }\r\n\r\n    // Retrieve all logs from blockchain\r\n    function getAllLogs() public view returns (LogEntry[] memory) {\r\n        return logs;\r\n    }\r\n}\r\n\r\n",
  "sourcePath": "D:\\Major_Project\\practice2\\contracts\\MedicalRecords.sol",
  "compiler": {
    "name": "solc",
    "version": "0.8.0+commit.c7dfd78e.Emscripten.clang"
  },
  "schemaVersion": "3.4.16",
  "updatedAt": "2025-02-07T17:35:14.797Z",
  "networkType": "ethereum",
  "devdoc": {
    "kind": "dev",
    "methods": {},
    "version": 1
  },
  "userdoc": {
    "kind": "user",
    "methods": {},
    "version": 1
  }
}